:020000040800F2
:10000000400800205D300008F5010008F7010008F5
:10001000FB010008FF0100080302000800000000C7
:1000200000000000000000000000000007020008BF
:1000300009020008000000000B0200080D02000881
:1000400077300008773000087730000877300008F4
:1000500077300008773000087730000877300008E4
:100060000F0200087730000877300008773000086A
:1000700077300008773000087730000877300008C4
:1000800077300008773000087730000877300008B4
:1000900077300008773000087730000877300008A4
:1000A0007730000877300008773000087730000894
:1000B0002102000877300008773000087730000808
:1000C0007730000877300008773000087730000874
:1000D0007730000877300008773000087730000864
:1000E00077300008773000087730000800F002F819
:1000F00000F03FF80AA090E8000C82448344AAF183
:100100000107DA4501D100F034F8AFF2090EBAE880
:100110000F0013F0010F18BFFB1A43F0010318473B
:10012000D06F0000F06F0000103A24BF78C878C18B
:10013000FAD8520724BF30C830C144BF04680C60ED
:10014000704700000023002400250026103A28BF35
:1001500078C1FBD8520728BF30C148BF0B60704739
:10016000632905F0FD82002070471FB51FBD10B543
:1001700010BD05F037FB1146FFF7F7FF00F01BF845
:1001800005F055FB03B4FFF7F2FF03BC01F034F9AF
:1001900001464906154A926942F00102134B9A61E1
:1001A000134A526822F0E062114B5A601A465268B4
:1001B0000A435A6070470120FFF7EAFF01F0E0FBB5
:1001C00000F0BCFF01F026F901F016FA00F07FFB09
:1001D00000F042FB00F0BCFB00F0D2FE00F0F4FDAA
:1001E00001F03CFB01F054F900BFFEE700100240B3
:1001F00000000140704700BFFEE700BFFEE700BF00
:10020000FEE700BFFEE7704770477047704710B5C4
:10021000042005F007FA10B1042005F014FA10BD0F
:1002200010B50121880704F0EAFD78B101218807A3
:1002300004F0F6FD06480068012807D100F0D2FD61
:100240000449054802F0EDFE00F0C0FA10BD0000C0
:100250000000002060000020A400002003B5A1B031
:1002600001201F902198C0680C902198C0680B90C5
:100270000C9906F00DFD0E90219880680A90219847
:10028000806809900A9906F003FD0C902198406857
:100290000890219840680790089906F0F9FC0A90A8
:1002A000219800680890219800680790089906F046
:1002B000EFFC09900A9906F07FFB0B900C9906F071
:1002C0007BFB0D900E9906F077FB0F9006F048FB34
:1002D000CDE9100105F072FDCDE9120105F096FDA2
:1002E0001490002020900FE0DDE9201050F821004C
:1002F0001390149906F0C2FBDDE9202141F8220099
:100300002098401CC0B2209020980428ECDB219853
:1003100000681E90219840681D90219880681C906C
:100320002198C0681B904FF080401D9906F0B0FCEA
:100330000C901B9906F0ACFC0E904FF080401E997B
:1003400006F0A6FC0C901C9906F0A2FC0D900E99EC
:1003500006F06AFD0F9006F003FBCDE9100105F0F1
:10036000DDFACDE9120105F051FD19904FF0804101
:10037000FE48006806F082FB1090199906F054FDC3
:10038000119006F0EDFA21F00041F94AF94BCDE960
:10039000120105F099FF18D3F448006880F000407E
:1003A0004FF080410F9006F069FB1090199906F00C
:1003B0003BFD119006F0D4FA21F00041EC4AED4BE0
:1003C000CDE9120105F080FF7DD21F9800287BD077
:1003D0001A981A901A9806F0C3FACDE910011B99E1
:1003E000084606F055FC06901C99084606F050FC9D
:1003F00004901D99084606F04BFC02901E99084691
:1004000006F046FC0190029906F00EFD0390049957
:1004100006F0D2FA0590069906F006FD08901C99A0
:100420001E9806F035FC05901B991D9806F030FCCF
:100430000490059906F0C0FA4FF08041069006F04E
:1004400027FC0790089906F0EFFC0A904FF08040D7
:100450001E9906F01DFC06901B9906F019FC0890E9
:100460004FF080401D9906F013FC04901C9906F093
:100470000FFC06904FF080401E9906F009FC029098
:100480001D9906F005FC04904FF080401C9906F081
:10049000FFFB02901B9906F0FBFB0390049906F00A
:1004A000C3FC0590069906F087FA0790089906F0B4
:1004B000BBFC09900A9906F0E1FA0B9006F050FA9D
:1004C000CDE90C0101E09CE00DE005F065FBCDE914
:1004D0000E01DDE9102306F059F9CDE9120105F00E
:1004E00095FC189086E018981890189806F038FA3D
:1004F000CDE910011B99084606F0CAFB06901C992D
:10050000084606F0C5FB04901D99084606F0C0FB9E
:1005100002901E99084606F0BBFB0190029906F076
:1005200083FC0390049906F047FA0590069906F0BB
:100530007BFC08901C991E9806F0AAFB05901B995D
:100540001D9806F0A5FB0490059906F035FA4FF0CA
:100550008041069006F09CFB0790089906F064FC29
:100560000A904FF080401E9906F092FB06901B996E
:1005700006F08EFB08904FF080401D9906F088FB36
:1005800004901C9906F084FB06904FF080401E9961
:1005900006F07EFB02901D9906F07AFB04904FF066
:1005A00080401C9906F074FB02901B9906F070FBCA
:1005B0000390049906F038FC0590069906F0FCF9C2
:1005C0000790089906F030FC09900A9906F056FA4F
:1005D0000B9006F0C5F9CDE90C0105F0DDFACDE987
:1005E0000E01DDE9102306F0D1F8CDE9120105F086
:1005F0000DFC1A901F9808B9012000E000201F9000
:1006000083E01B99084606F043FB0C901C990846B2
:1006100006F03EFB0A901D99084606F039FB08904B
:100620001E99084606F034FB0790089906F0C4F9B5
:1006300009900A9906F0F8FB0B900C9906F0F4FB70
:100640000E901B991E9806F023FB0B90DDE91C1001
:1006500006F01EFB0A900B9906F0AEF94FF08041B0
:100660000C9006F015FB0D900E9906F007FA0F900E
:1006700006F076F9CDE9100105F08EFACDE9120108
:1006800005F0C4FB18901B99084606F001FB0C907E
:100690001C99084606F0FCFA0A901D99084606F0D7
:1006A000F7FA08901E99084606F0F2FA07900899A2
:1006B00006F0BAFB09900A9906F0B6FB0B900C996C
:1006C00006F07AF90E90DDE91D1006F0E1FA0B90C4
:1006D000DDE91B1006F0DCFA0A900B9906F06CF9C4
:1006E0004FF080410C9006F0D3FA0D900E9906F071
:1006F000C5F90F9006F034F9CDE9100105F04CFA78
:10070000CDE9120105F082FB1A901B4840680146B2
:100710001390199806F088FB1690174880680146D8
:100720001390189806F080FB159013480068014656
:1007300013901A9806F078FB17901049159806F058
:10074000A7FA22990860179880F000400B4913908F
:1007500006F09EFA229948600849169806F098FA21
:10076000229988600020209023E0000014000020DF
:100770009A9999999999B93FA400002000007A4468
:100780002099229850F82100119006F0E9F821F004
:10079000004100222D4BCDE9120105F095FD04D258
:1007A00000222099229840F821202098401CC0B2B5
:1007B000209020980228E3DB254919984860189872
:1007C00088601A980860002023B000BD10B58AB078
:1007D0001F48C06804901E48006980F000400590E2
:1007E0001B48406980F000400690194880690790D6
:1007F00001A904A8FFF732FD80208DF820000A200F
:100800008DF8210001F094F840B28DF82200019893
:1008100006F0F6F940B28DF82300029806F0F0F9E0
:1008200040B28DF8240000208DF8250008A800F0C3
:1008300092FF002405E008A8015706A004F00EFF6F
:10084000641C062CF7DB0AB010BD00000000084055
:10085000A40000202563000010B5272220213020AD
:1008600000F07CFD00222321302000F077FD10BD38
:100870002DE9F04704462821302000F092FD05467E
:100880002921302000F08DFD06462A21302000F07D
:1008900088FD07462B21302000F083FD80462C2167
:1008A000302000F07EFD81462D21302000F079FDC2
:1008B000824605EB062000B2208007EB082000B23C
:1008C000608009EB0A2000B2A080BDE8F08710B577
:1008D00080223E21D02000F041FD07221521D020AA
:1008E00000F03CFD1E221621D02000F037FD10BD87
:1008F0002DE9F04704461E21D02000F052FD0546A8
:100900001D21D02000F04DFD06462021D02000F012
:1009100048FD07461F21D02000F043FD80462221DC
:10092000D02000F03EFD81462121D02000F039FD8D
:10093000824605EB062000B2208007EB082000B2BB
:10094000608009EB0A2000B2A080BDE8F0870000BB
:1009500010B5142200213C2000F000FD00220221ED
:100960003C2000F0FBFC10BD2DE9F04704460421BB
:100970003C2000F016FD054603213C2000F011FD4F
:10098000064606213C2000F00CFD074605213C20D0
:1009900000F007FD804608213C2000F002FD814662
:1009A00007213C2000F0FDFC824605EB062000B24A
:1009B000208007EB082000B2608009EB0A2000B21B
:1009C000A0800B48007888B920880A490988401A15
:1009D00000B22080608808490988401A00B260800F
:1009E000A08806490988401A00B2A080BDE8F087B7
:1009F000180000201C0000202000002024000020FF
:100A00002DE9F04F89B00446002006900790089029
:100A10000490059081468BE004A8FFF7A5FFBDF97F
:100A2000100006F009F90546069905F0C5FF069085
:100A3000BDF9120006F000F90546079905F0BCFF64
:100A40000790BDF9140006F0F7F80546089905F07F
:100A5000B3FF089009F10109A14569D1204606F0CC
:100A600003F905462946069806F008F8FE49C1F83C
:100A7000F400204606F0F8F805462946079805F0E8
:100A8000FDFFF949C1F8F800204606F0EDF80546EB
:100A90002946089805F0F2FFF349C1F8FC000A4620
:100AA000D2F8FC10D2F8FC0006F0F2F8EE4A0390FF
:100AB000D2F8F810D2F8F80006F0EAF8EA4A029004
:100AC000D2F8F410D2F8F40006F0E2F8019002999E
:100AD00005F072FF8346039905F06EFF824605F02C
:100AE0003FFF074605F06AF9054605F08FF9DF4933
:100AF000C8630A46D16BDC4AD2F8F40005F0BEFFA9
:100B0000D949C1F8F400D94AD16BD74AD2F8F800D4
:100B100005F0B4FFD449C1F8F800D44AD16BD24AE9
:100B2000D2F8FC0005F0AAFFCF49C1F8FC0000E0B4
:100B300072E700BF09B0BDE8F08F2DE9F04F89B032
:100B4000044600200690079008908146ACE004A877
:100B5000FFF78EFEBDF9100005F09EFB0746002250
:100B6000C34B05F0EDFB054605F050F9BF49C861E0
:100B7000BDF9120005F090FB07460022BC4B05F0C2
:100B8000DFFB054605F042F9B8490862BDF91400DB
:100B900005F082FB07460022B54B05F0D1FB054668
:100BA00005F034F9B14948620A46D169069805F062
:100BB00003FF0690AD4A116A079805F0FDFE079005
:100BC000AA4A516A089805F0F7FE089009F1010950
:100BD000A14569D1204606F047F805462946069802
:100BE00005F04CFFA049C1F80001204606F03CF892
:100BF00005462946079805F041FF9B49C1F80401C5
:100C0000204606F031F805462946089805F036FFDB
:100C10009549C1F808010A46D2F80811D2F808012E
:100C200006F036F8904A0390D2F80411D2F8040185
:100C300006F02EF88C4A0290D2F80011D2F800018A
:100C400006F026F80190029905F0B6FE8346039956
:100C500005F0B2FE824605F083FE054605F0AEF8CB
:100C6000074605F0D3F8814988620A46916A7E4AB0
:100C7000D2F8000105F002FF7B49C1F800017B4A70
:100C8000916A794AD2F8040105F0F8FE7649C1F874
:100C90000401764A916A744AD2F8080105F0EEFE22
:100CA0007149C1F8080100E051E700BF09B0BDE893
:100CB000F08F2DE9FF47044600200290039000903A
:100CC000019081467CE06846FFF712FEBDF9000006
:100CD00005F0E2FA07460022664B05F031FB0546B7
:100CE00005F094F861490860BDF9020005F0D4FAF6
:100CF000054600225F4B05F023FB074605F086F80A
:100D00005A494860BDF9040005F0C6FA05460022BC
:100D1000584B05F015FB074605F078F853498860F5
:100D2000BDF9080005F088FF0646504801683046C6
:100D300005F042FE054605F063FF00B2ADF808007D
:100D4000BDF90A0005F078FF06464848416830467C
:100D500005F032FE054605F053FF00B2ADF80A007B
:100D6000BDF90C0005F068FF064640488168304632
:100D700005F022FE054605F043FF00B2ADF80C0079
:100D800009F10109A1451BD1BDF90800B0FBF4F53B
:100D9000284605F069FF3549C860BDF90A00B0FB77
:100DA000F4F5284605F060FF30490861BDF90C00F4
:100DB000B0FBF4F5284605F057FF2C49486100E0E8
:100DC00081E700BFBDE8FF8710B54FF47A70FFF7E9
:100DD00070FF4FF47A70FFF7B0FE4FF47A70FFF7B0
:100DE0000FFE10BDF0B587B005A8FFF781FD03A881
:100DF000FFF73EFD01A8FFF7B7FDBDF9140005F0B0
:100E00004BFA064600221B4B05F09AFA044604F002
:100E1000FDFF16490860BDF9160005F03DFA0646CB
:100E20000022144B05F08CFA044604F0EFFF0F4942
:100E30004860BDF9180005F02FFA064600220D4B58
:100E400005F07EFA044604F0E1FF08498860BDF928
:100E50000C0005F021FA06460022054B05F070FA59
:100E6000044604F0D3FF07E0A40000206000002047
:100E70000000103F0040AF3FA649C861BDF90E0019
:100E800005F00AFA06460022A34B05F059FA04467B
:100E900004F0BCFF9F490862BDF9100005F0FCF9A1
:100EA000064600229C4B05F04BFA044604F0AEFFC8
:100EB00098494862BDF9040005F0BEFE95490863F3
:100EC000BDF9060005F0B8FE92494863BDF9080077
:100ED00005F0B2FE8F498863084640688F49C1F823
:100EE00018018C48006880F00040C1F81C01894856
:100EF0008068C1F820010120864988610846C069E0
:100F00008649C1F824018348006AC1F82801814854
:100F1000406AC1F82C0101207E49C8620846006B76
:100F20007E49C1F830017B48406BC1F834017948F3
:100F3000806BC1F83801774AD16B784AD2F830011A
:100F400005F09CFD7549C1F83001724AD16B734AB6
:100F5000D2F8340105F092FD7049C1F834016D4AB0
:100F6000D16B6E4AD2F8380105F088FD6B49C1F8A3
:100F700038010120674908646949086007B0F0BD7D
:100F80002DE9FE430024002500260027A046A146A7
:100F90000121102002F048FB0220ADF800000320E0
:100FA0008DF8020010208DF8030069465D4802F0BC
:100FB00003FC0120ADF8000028208DF803006946ED
:100FC000584802F0F9FB0221564802F0A0FC01212A
:100FD000544802F082FC54490870022002F038FDA7
:100FE00052480068401C1DD102F051FD4F4802F0EC
:100FF00093FD352002F0E6FF00214C4802F05CFE34
:10100000352002F0DFFF00214848001D02F054FEA9
:10101000352002F0D7FF00214448083002F04CFE92
:1010200002F041FD4048007860B9404800684049FE
:1010300008603E4840683F4908603C4880683E4937
:10104000086065E03FE001A8FFF78EFCBDF90800ED
:10105000404501DDBDF90880BDF90800484501DAC9
:10106000BDF9089008EB090000EBD0714910324A35
:101070001160BDF90400A04201DDBDF90440BDF9D5
:101080000400A84201DABDF90450601900EBD071E8
:101090004910274A1160BDF90600B04201DDBDF9D3
:1010A0000660BDF90600B84201DABDF90670F01914
:1010B00000EBD07149101F4A11600121194802F05C
:1010C0000CFC19490870184800780028BBD102F0C0
:1010D000DEFC164802F020FD352002F073FF1448B4
:1010E0000168124802F0E8FD352002F06BFF11485C
:1010F00001680E48001D02F0DFFD352002F062FF9E
:101100000D4801680948083002F0D6FD02F0CBFC1A
:10111000BDE8FE83600000200000103FA400002016
:1011200000000020001001401800002000B000085E
:101130001C000020200000202400002008B5012110
:10114000092002F071FAC020ADF8000003208DF8EC
:10115000020014208DF803006946A64802F02CFB1B
:1011600008BD142001E0411EC8B20028FBDC704716
:1011700041F2883000E0401E0028FCD1704700B5E5
:1011800080209C491031086040200860FFF7E9FF8B
:10119000984808300068002000B100BD80209549C3
:1011A00014310860FFF7DDFF92480830006810F046
:1011B000800F01D00020F0E780208E4914310860B4
:1011C000FFF7CFFF0120E8E700B54020894914313F
:1011D0000860FFF7C6FF8020864914310860FFF7DA
:1011E000C0FF4020834910310860FFF7BAFF80201C
:1011F000804910310860FFF7B4FF00BD00B5402002
:101200007C4914310860FFF7ACFF80207949143124
:101210000860FFF7A6FF4020764910310860FFF70D
:10122000A0FF4020734914310860FFF79AFF00BD0A
:1012300000B540206F4914310860FFF792FF80200D
:101240006C4910310860FFF78CFF4020694910316C
:101250000860FFF786FF4020664914310860FFF7F9
:1012600080FF00BD00B54020624914310860FFF7DF
:1012700078FF80205F4910310860FFF772FF40203F
:101280005C4910310860FFF76CFF5A48083000686D
:1012900010F0800F07D04020564914310860FFF746
:1012A00060FF002000BD4020524914310860FFF764
:1012B00058FF0120F6E700B5024608231BE0402056
:1012C0004C4914310860FFF74CFF12F0800F04D036
:1012D000802048491031086003E0802045491431DE
:1012E00008605006020EFFF73CFF402041491031D4
:1012F0000860FFF736FF1800A3F10101CBB2DED181
:1013000040203C491431086000BD00B5082300228C
:10131000802038491031086015E05006020E402048
:10132000344914310860FFF71CFF40203149103167
:101330000860FFF716FF2F480830006810F0800F94
:1013400001D042F001021800A3F10101CBB2E4D1B7
:101350004020284914310860104600BD70B506468B
:101360000C461546FFF70BFF08B9002070BD30464C
:10137000FFF7A1FFFFF776FF18B9FFF725FF002061
:10138000F4E72046FFF797FFFFF76CFF2846FFF7CB
:1013900092FFFFF767FFFFF717FFFFF7E9FE012056
:1013A000E4E770B504460D46FFF7E9FE08B90020F2
:1013B00070BD2046FFF77FFFFFF754FF18B9FFF716
:1013C00003FF0020F4E72846FFF775FFFFF74AFF09
:1013D000FFF7D5FE611CC8B2FFF76DFFFFF742FFB4
:1013E000FFF793FF0646FFF723FFFFF7EDFE3046BA
:1013F000DEE70000000C0140014600BF7047C2B2AA
:10140000214B1A8000BF204A121F128812F0400F91
:10141000F9D0704700B585B0012144F2050002F013
:1014200003F918208DF813004FF40070ADF8100088
:1014300003208DF8120004A9144802F0BDF904201D
:101440008DF813000002ADF8100004A90F4802F057
:10145000B3F94FF4E13000900020ADF80400ADF88E
:101460000600ADF80800ADF80C000C20ADF80A003D
:1014700069460548001F03F01AFD01210248001FBC
:1014800003F0A1FD05B000BD043801400008014093
:101490001FB54FF4A06001F0EFFE1C208DF8000096
:1014A00003208DF8010000208DF8020001208DF846
:1014B0000300684601F0E5FE0121084602F0C1F88C
:1014C0004FF0804002F0A2FD40F2F310ADF80800AA
:1014D00041F2BF20ADF804000020ADF80A00ADF8DD
:1014E000060001A94FF0804002F064FE00214FF099
:1014F000804003F0BBFA0121880703F07DFC012244
:101500001146900703F0CDF90121880703F0AEF9E9
:101510001FBD000000B587B0012141F2050002F0B7
:1015200083F818208DF81B00E020ADF81800032088
:101530008DF81A0006A9EE4802F03EF90020ADF839
:1015400004004FF48270ADF806000020ADF80800EA
:10155000ADF80A00ADF80C004FF40070ADF80E00C5
:101560001020ADF810000020ADF812000720ADF8F3
:10157000140001A9DF4803F081FE0121DD4803F0DA
:1015800022FF07B000BD1FB50121042002F04CF876
:1015900048208DF80F000420ADF80C0003A9D448B2
:1015A00002F00AF900214FF0006001F09DFE4FF4B7
:1015B000C06001F061FE08208DF8080000208DF861
:1015C00009008DF80A0001208DF80B0002A801F037
:1015D00058FE0221002002F003FA042000900020AF
:1015E0008DF804000C208DF8050001208DF8060010
:1015F000684603F0B1FF1FBD08B501210C2002F0C1
:1016000013F810208DF803001820ADF80000032017
:101610008DF802006946B64802F0CEF810208DF829
:101620000300ADF8000003208DF802006946B248BF
:1016300002F0C2F8FFF76EFFFFF7A5FF0821AC48E4
:1016400002F067F91021AC4802F061F908BD0246CA
:10165000002105E0481CC1B2C82901DD0020704707
:10166000A448008910F0020FF4D0A2488281002122
:1016700005E0481CC1B2C82901DD0020EFE79D4804
:10168000008910F0010FF4D09A488089C0B2E6E7D3
:1016900070B505460C461021974802F03AF92846E5
:1016A000FFF7D5FF06462046FFF7D1FF10219248ED
:1016B00002F02DF9304670BD70B5044610218E48F9
:1016C00002F027F92046FFF7C2FFFF20FFF7BFFF18
:1016D00005461021884802F01AF9284670BD2DE908
:1016E000F04107460D4616461021834802F011F9D5
:1016F0003846FFF7ACFF8046002405E0FF20FFF7E7
:10170000A6FF2855601CC4B2B442F7DB10217A480A
:1017100002F0FDF84046BDE8F0812DE9F0410746B2
:101720000C4615461021744802F0F3F83846FFF7CE
:101730008EFF8046002605E014F8010BFFF787FFB7
:10174000701CC6B2AE42F7DB10216B4802F0DFF826
:101750004046BDE8F08170B505460821644802F0B6
:10176000D8F820222946A020FFF7D7FF082160489B
:1017700002F0CDF800BF04215D4802F0AEF8002869
:10178000F9D10720FFF798FF044621462720FFF7ED
:101790007FFF14F0100F05D0FF21E120FFF778FF45
:1017A000102070BD14F0200F01D02020F9E7FF2099
:1017B000F7E770B504460720FFF77EFF0546294688
:1017C0002720FFF765FF15F0400F12D00821484889
:1017D00002F09FF8202221466120FFF780FFFF21C1
:1017E000E220FFF755FF0821414802F090F8002061
:1017F00070BD0120FCE710B508213D4802F089F8D2
:1018000070212720FFF744FF0021E120FFF740FF70
:101810000021E220FFF73CFF052238492A20FFF78C
:101820007CFF01212120FFF733FF01212220FFF758
:101830002FFF00212520FFF72BFF20213120FFF76C
:1018400027FF07212620FFF723FF0F212020FFF786
:101850001FFF0821264802F05AF810BD10B50821D4
:10186000234802F056F8052225493020FFF755FF9E
:1018700001212120FFF70CFF01212220FFF708FFA3
:1018800032212420FFF704FF00212520FFF700FF6D
:1018900007212620FFF7FCFE0E212020FFF7F8FE8F
:1018A0000821134802F033F810BD1FB515A103C974
:1018B000CDE90201052202A93020FFF72EFF052203
:1018C00069461020FFF70BFF002406E01DF8040016
:1018D000A52800D003E0601CC4B2052CF6DB00BFD5
:1018E000052C02D0012004B010BD0020FBE7000051
:1018F0000008014000300140000C01400D000020B4
:1019000008000020A5A5A5A5A500000008B5012197
:10191000042001F089FE48208DF803000320ADF873
:1019200000008DF802006946134801F045FF08BD2C
:1019300010B512480078E0B101210F4801F0CDFF49
:1019400020B102210C4801F0C8FF90B90A2000F034
:1019500053F80121084801F0C0FF08B9012010BD6B
:101960000221054801F0B9FF08B90220F7E700207D
:10197000F5E70020F3E70000000801402C000020FC
:1019800010B56FF0040001F0C7FC2D4800682D4928
:10199000B0FBF1F02C4908700846007800EB4001DC
:1019A000C1EBC0104FF6FF7101EAC0002749088063
:1019B00010BD0146244A12784A434FF0E0235A6191
:1019C00000229A611A46126942F001021A6100BFB0
:1019D0004FF0E022106910F0010F02D010F4803FA8
:1019E000F6D04FF0E022126922F001024FF0E0231E
:1019F0001A6100229A6170470146144A12884A43CC
:101A00004FF0E0235A6100229A611A46126942F0AF
:101A100001021A6100BF4FF0E022106910F0010FBF
:101A200002D010F4803FF6D04FF0E022126922F08D
:101A300001024FF0E0231A6100229A617047000012
:101A40003800002000127A002E0000203000002014
:101A50002DE9F04192B006460F469046306839684D
:101A6000884203D170687968884203D0002012B0A0
:101A7000BDE8F0813068009070680190002419E0A2
:101A8000002513E007F1080202EB041252F82510BA
:101A900006F1080202EB041252F8250004F08CFF54
:101AA00002A901EB041141F825006D1C7068A842E1
:101AB000E8DC641C3068A042E2DC002411E0002570
:101AC0000BE002A800EB041050F8251008F1080004
:101AD00000EB041040F825106D1C0198A842F0DCC2
:101AE000641C0098A042EADC0098C8F80000019845
:101AF000C8F804000120BAE72DE9F04F93B006467C
:101B00000F46904670683968884203D0002013B0B1
:101B1000BDE8F08F3068019078680290002427E0DB
:101B2000002521E04FF0000AD14614E007F1080239
:101B300002EB091252F8251006F1080202EB04121A
:101B400052F8290005F0A4F88346514604F034FF0A
:101B5000824609F1010970684845E7DC03A800EBFB
:101B6000041040F825A06D1C7868A842DADC641CDB
:101B70003068A042D4DC002411E000250BE003A86B
:101B800000EB041050F8251008F1080000EB0410D9
:101B900040F825106D1C0298A842F0DC641C0198E6
:101BA000A042EADC0198C8F800000298C8F80400D6
:101BB0000120ACE72DE9F04180460C46154620682F
:101BC000286060686860002615E000270FE004F1D7
:101BD000080000EB061050F82710404605F058F8B2
:101BE00005F1080101EB061141F827007F1C606830
:101BF000B842ECDC761C2068B042E6DC0120BDE88F
:101C0000F08102460020704730B592B003460C4682
:101C10005868009018680190002111E000220BE044
:101C200003F1080000EB011050F8225002A800EB6D
:101C3000021040F82150521C58689042F0DC491CB8
:101C400018688842EADC002111E000220BE002A8BB
:101C500000EB011050F8225004F1080000EB0110D5
:101C600040F82250521C01989042F0DC491C009828
:101C70008842EADC0098206001986060012012B080
:101C800030BD70B503460C4615461C605D600021F2
:101C900017E0002211E0002603F1080000EB01101C
:101CA00040F82260914207D14FF07E5603F10800C0
:101CB00000EB011040F82260521C58689042EADCA8
:101CC000491C18688842E4DC002070BD70B50346EA
:101CD0000C4615461C605D6000210DE0002207E007
:101CE000002603F1080000EB011040F82260521CAE
:101CF00058689042F4DC491C18688842EEDC0120E8
:101D000070BD30B502461068086050684860002316
:101D100012E000240CE002F1080000EB031050F880
:101D2000245001F1080000EB031040F82450641C1B
:101D30004868A042EFDC5B1C08689842E9DC01209F
:101D400030BD2DE9F04F89B004460D461646276890
:101D5000D4F80480D4F80890E068089028680790C8
:101D600068680690A8680590E86804900499089847
:101D700004F08EFF03904846059904F089FF029015
:101D80004046069904F084FF01903846079904F014
:101D90007FFF0090019905F047F88346029905F00E
:101DA00043F88246039905F03FF83060059908989A
:101DB00004F06EFF03904846049904F069FF029016
:101DC0004046079904F064FF01903846069904F0F4
:101DD0005FFF0090019904F0EFFD8346029904F043
:101DE000EBFD8246039905F01FF87060069908988C
:101DF00004F04EFF03904846079904F049FF029013
:101E00004046049904F044FF01903846059904F0D7
:101E10003FFF0090019905F007F88346029904F00E
:101E2000CBFD8246039904F0C7FDB060DDE90710E1
:101E300004F02EFF03904846069904F029FF029013
:101E40004046059904F024FF01903846049904F0B7
:101E50001FFF0090019904F0AFFD8346029904F042
:101E6000E3FF8246039904F0A7FDF060012009B06A
:101E7000BDE8F08F024610680860506880F00040AE
:101E80004860906880F000408860D06880F0004032
:101E9000C860012070472DE9F05F0446E1680846FC
:101EA00004F0F6FE0746A168084604F0F1FE8046FD
:101EB0006168084604F0ECFE82462168084604F09A
:101EC000E7FE8346514604F077FD0646414604F09E
:101ED00073FD0546394604F06FFD8146484604F01F
:101EE0003FFD074603F06AFF054603F08FFF81467A
:101EF0004946206804F0C2FD20604946606804F04D
:101F0000BDFD60604946A06804F0B8FDA060494688
:101F1000E06804F0B3FDE0600120BDE8F09F70B51B
:101F200004460D4616462968206804F07DFF30609F
:101F30006968606804F078FF7060A968A06804F0C0
:101F400073FFB060E968E06804F06EFFF0600120A4
:101F500070BD70B504460D4616462968206804F029
:101F60002BFD30606968606804F026FD7060A96828
:101F7000A06804F021FDB060E968E06804F01CFD91
:101F8000F060012070BD70B504460E46154631461E
:101F9000206804F07DFE28603146606804F078FE19
:101FA00068603146A06804F073FEA8603146E068BE
:101FB00004F06EFEE860012070BD00002DE9F041E4
:101FC00004221146FE48FFF781FE04221146FC4818
:101FD0009030FFF77BFEFB48F9491C39C1F814012A
:101FE0004002C1F80C01C1F81001D1F8140104F04D
:101FF000B7FC0646F44AF54B04F0A2F9044603F098
:1020000005FFEF491C39C1F8B400D1F8140104F000
:10201000A7FC0646EC4AED4B04F092F9044603F0A7
:10202000F5FE0146E6481C38C0F8C8100146D1F854
:10203000140104F095FC0646E34AE44B04F080F9F1
:10204000044603F0E3FE0146DD481C38C0F8DC100E
:102050000146D1F8140104F083FC0646DA4ADB4B52
:1020600004F06EF9044603F0D1FE0146D4481C3852
:10207000C0F8F0100146D1F8140104F071FC0646D6
:10208000D14AD24B04F05CF9044603F0BFFECC49C0
:102090001C394862D1F8140104F062FC0646CA4AB1
:1020A000CA4B04F04DF9044603F0B0FE0146C448A3
:1020B0001C3881630146D1F8140104F051FC064636
:1020C000C14AC24B04F03CF9044603F09FFE0146AE
:1020D000BB481C38C1640146D1F8140104F040FC2F
:1020E0000646B94AB94B04F02BF9044603F08EFEBC
:1020F0000146B3481C3801664FF07E50B0491C3988
:10210000C8600021AE481C38016141618161002036
:10211000AB491C39086088604860BDE8F0812DE952
:10212000F04FC9B004460D4616461F46DDF84CA1D7
:10213000DDF848910122042125A8FFF7C7FD0422FC
:10214000114613A8FFF7C2FD37A92046FFF75CFD33
:1021500025AA37A99A489030FFF7CEFC13AA9849D0
:1021600090312046FFF7C8FC13AA37A913A8FFF740
:10217000C3FC3946159804F01FFC834659464FF0BE
:102180007E5004F07BFC804601AA25A94046FFF75B
:1021900011FD3146284604F047FE0090009903984F
:1021A00004F076FD834686481C38C168584604F022
:1021B00003FC83491C39C8600099079804F068FD46
:1021C00083467F481C380169584604F0F5FB7C497A
:1021D0001C39086100990B9804F05AFD8346784831
:1021E0001C384169584604F0E7FB75491C394861C1
:1021F00000990F9804F04CFD834671481C388169A2
:10220000584604F0D9FB6E491C39886104221146F6
:1022100025A8FFF736FD13AA214601A8FFF76CFC9D
:1022200013AA13A96A48FFF7C5FC25AA13A925A874
:10223000FFF70EFC624A9032114625A8FFF75CFCBE
:1022400049B0BDE8F08F00B5A7B06248C06A002869
:102250007ED05B481C38D0F82C01089058481C38B8
:10226000D0F82C010790089904F012FD0A90544808
:102270001C38D0F82801069051481C38D0F82801A5
:102280000590069904F004FD08904D481C38D0F8DC
:10229000240106904A481C38D0F82401059006997C
:1022A00004F0F6FC0790089904F086FB09900A995F
:1022B00004F082FB0B9004F053FBCDE90C0103F01A
:1022C0007DFDCDE90E0103F0A1FD229001201090CB
:1022D000042011904FF07E51229804F0A5FD0D903E
:1022E00004F03EFB3C4A3D4BCDE90E0103F0ECFF10
:1022F00065D24FF07E51229804F096FD0D9004F0C7
:102300002FFB354A364BCDE90E0104F017F9EFD219
:102310002B481C38C068269029481C380069259035
:1023200027481C384069249025481C388069239030
:1023300023481C38D0F800010C9021481C38D0F8F4
:1023400004010B901E481C38D0F808010A9000E0E8
:102350008BE22399084604F09BFC069024990846DA
:1023600004F096FC04902599084604F091FC029034
:102370002699084604F08CFC0190029904F01CFB9D
:102380000390049904F050FD0590069904F04CFD6B
:1023900007900C9904F07CFC09904FF0804025993F
:1023A00004F076FC0290239904F072FC04904FF044
:1023B0008040269904F06CFC0290249912E053E2CC
:1023C000C00000200000A041F168E388B5F8E43EB9
:1023D000000080BF600000209A9999999999B93FAF
:1023E0009999B9BF04F054FC0390049904F01CFDC2
:1023F00005900A9904F04CFC07904FF08040259915
:1024000004F046FC0290249904F042FC04904FF042
:102410008040269904F03CFC0290239904F038FC9B
:102420000390049904F0C8FA05900B9904F030FC6D
:102430000690079904F0F8FC0890099904F0BCFA9A
:102440000F9023990B9804F023FC099024990A9883
:1024500004F01EFC07900C99269804F019FC0690D5
:10246000079904F0E1FC0890099904F0A5FA12908C
:1024700023990A9804F00CFC099024990B9804F015
:1024800007FC079025990C9804F002FC0690079928
:1024900004F092FA0890099904F08EFA13902499A6
:1024A0000C9804F0F5FB09900A99269804F0F0FBCB
:1024B000079025990B9804F0EBFB0690079904F020
:1024C000B3FC0890099904F0AFFC149023990C9880
:1024D00004F0DEFB099025990A9804F0D9FB0790D7
:1024E0000B99269804F0D4FB0690079904F064FA3F
:1024F0000890099904F098FC15900120FE49CDE957
:1025000000100846D0F80C0109900846D0F82401C4
:102510000890014610A8099B0F9AFFF700FE239927
:10252000084604F0B5FB06902499084604F0B0FB79
:1025300004902599084604F0ABFB029026990846C2
:1025400004F0A6FB0190029904F06EFC039004993C
:1025500004F032FA0590069904F066FC07900B9996
:1025600004F096FB09904FF08040259904F090FB11
:102570000290249904F08CFB04904FF0804026993F
:1025800004F086FB0290239904F082FB03900499E7
:1025900004F04AFC05900C9904F07AFB07904FF088
:1025A0008040249904F074FB0290239904F070FB9E
:1025B00004904FF08040269904F06AFB0290259920
:1025C00004F066FB0390049904F0F6F905900A996B
:1025D00004F05EFB0690079904F026FC0890099928
:1025E00004F0EAF90E9023990C9804F051FB09903D
:1025F00025990A9804F04CFB07900B99269804F053
:1026000047FB0690079904F0D7F90890099904F060
:102610000BFC129024990C9804F03AFB0990259930
:102620000B9804F035FB07900A99269804F030FBCC
:102630000690079904F0F8FB0890099904F0BCF99A
:10264000139023990A9804F023FB099024990B987E
:1026500004F01EFB079025990C9804F019FB0690D6
:10266000079904F0A9F90890099904F0A5F91490C4
:1026700023990B9804F00CFB09900C99269804F010
:1026800007FB079024990A9804F002FB069007992B
:1026900004F0CAFB0890099904F0C6FB15900120CC
:1026A0009549CDE900100846D0F80C01099008467C
:1026B000D0F828010890014610A8099B0E9AFFF750
:1026C0002EFD2399084604F0E3FA06902499084663
:1026D00004F0DEFA04902599084604F0D9FA029035
:1026E0002699084604F0D4FA0190029904F09CFB64
:1026F0000390049904F098FB0590069904F05CF9A6
:1027000007900A9904F0C4FA09904FF08040249988
:1027100004F0BEFA0290239904F0BAFA04904FF044
:102720008040269904F0B4FA0290259904F0B0FA9A
:102730000390049904F078FB05900B9904F0A8FA33
:1027400007904FF08040259904F0A2FA0290239957
:1027500004F09EFA04904FF08040269904F098FA15
:102760000290249904F094FA0390049904F024F957
:1027700005900C9904F08CFA0690079904F054FB2C
:102780000890099904F018F90D9024990C9804F018
:102790007FFA099025990B9804F07AFA07900A9924
:1027A000269804F075FA0690079904F03DFB08900E
:1027B000099904F001F912900B99269804F068FA2F
:1027C000099025990A9804F063FA079023990C98C8
:1027D00004F05EFA0690079904F026FB0890099928
:1027E00004F022FB139023990B9804F051FA0990FE
:1027F00024990A9804F04CFA07900C99269804F052
:1028000047FA0690079904F00FFB0890099904F025
:10281000D3F8149023990A9804F03AFA099024996D
:102820000B9804F035FA079025990C9804F030FACB
:102830000690079904F0C0F80890099904F0BCF8D4
:10284000159001202C49CDE900100846D0F80C0164
:1028500009900846D0F82C010890014610A8099B61
:102860000D9AFFF75CFC00BF00BF2448006C0028F5
:102870007ED001201190042012901F48C06826903D
:102880001D48006925901C48406924901A488069B9
:1028900023901948D0F8F4000D901748D0F8F800AC
:1028A0000C901548D0F8FC000B902399084604F0D2
:1028B000EFF907902499084604F0EAF90590259964
:1028C000084604F0E5F903902699084604F0E0F97B
:1028D0000290039904F070F80490059904F0A4FAAA
:1028E0000690079904F0A0FA08900D9904F0D0F929
:1028F0000A904FF0804003E0A40000206000002018
:10290000259904F0C5F90390239904F0C1F90590C5
:102910004FF08040269904F0BBF90390249904F00D
:10292000B7F90490059904F07FFA06900B9904F02A
:10293000AFF908904FF08040259904F0A9F9039071
:10294000249904F0A5F905904FF08040269904F0F1
:102950009FF90390239904F09BF90490059904F0E2
:102960002BF806900C9904F093F90790089900E071
:1029700019E204F059FA09900A9904F01DF8109030
:1029800023990C9804F084F90A9024990B9804F088
:102990007FF908900D99269804F07AF90790089924
:1029A00004F042FA09900A9904F006F8139023996A
:1029B0000B9804F06DF90A9024990C9804F068F9CA
:1029C000089025990D9804F063F90790089903F091
:1029D000F3FF09900A9903F0EFFF149024990D98E2
:1029E00004F056F90A900B99269804F051F90890D2
:1029F00025990C9804F04CF90790089904F014FA02
:102A000009900A9904F010FA159023990D9804F092
:102A10003FF90A9025990B9804F03AF908900C991F
:102A2000269804F035F90790089903F0C5FF09903E
:102A30000A9904F0F9F916900020FE49CDE900103A
:102A40000846D0F810010A900846D0F830010990E5
:102A5000014611A80A9B109AFFF761FB23990846CB
:102A600004F016F907902499084604F011F905902E
:102A70002599084604F00CF903902699084604F0BD
:102A800007F90290039904F0CFF90490059903F037
:102A900093FF0690079904F0C7F908900C9904F089
:102AA000F7F80A904FF08040259904F0F1F8039070
:102AB000249904F0EDF805904FF08040269904F039
:102AC000E7F80390239904F0E3F80490059904F0E3
:102AD000ABF906900D9904F0DBF808904FF08040B8
:102AE000249904F0D5F80390239904F0D1F80590C7
:102AF0004FF08040269904F0CBF80390259904F01C
:102B0000C7F80490059903F057FF06900B9904F05D
:102B1000BFF80790089904F087F909900A9903F023
:102B20004BFF0F9023990D9804F0B2F80A90259965
:102B30000B9804F0ADF808900C99269804F0A8F8CA
:102B40000790089903F038FF09900A9904F06CF98E
:102B5000139024990D9804F09BF80A9025990C98ED
:102B600004F096F808900B99269804F091F80790D5
:102B7000089904F059F909900A9903F01DFF14907F
:102B800023990B9804F084F80A9024990C9804F087
:102B90007FF8089025990D9804F07AF80790089925
:102BA00003F00AFF09900A9903F006FF1590239994
:102BB0000C9804F06DF80A900D99269804F068F8C6
:102BC000089024990B9804F063F80790089904F092
:102BD0002BF909900A9904F027F9169000209549DD
:102BE000CDE900100846D0F810010A900846D0F848
:102BF00034010990014611A80A9B0F9AFFF78FFA3A
:102C00002399084604F044F807902499084604F0F4
:102C10003FF805902599084604F03AF80390269964
:102C2000084604F035F80290039904F0FDF804908A
:102C3000059904F0F9F80690079903F0BDFE089095
:102C40000B9904F025F80A904FF08040249904F085
:102C50001FF80390239904F01BF805904FF0804073
:102C6000269904F015F80390259904F011F80490C2
:102C7000059904F0D9F806900C9904F009F8089029
:102C80004FF08040259904F003F80390239903F056
:102C9000FFFF05904FF08040269903F0F9FF039065
:102CA000249903F0F5FF0490059903F085FE069042
:102CB0000D9903F0EDFF0790089904F0B5F809901D
:102CC0000A9903F079FE0E9024990D9803F0E0FF25
:102CD0000A9025990C9803F0DBFF08900B99269831
:102CE00003F0D6FF0790089904F09EF809900A991E
:102CF00003F062FE13900C99269803F0C9FF0A9026
:102D000025990B9803F0C4FF089023990D9803F0C0
:102D1000BFFF0790089904F087F809900A9904F01A
:102D200083F8149023990C9803F0B2FF0A90249929
:102D30000B9803F0ADFF08900D99269803F0A8FFBB
:102D40000790089904F070F809900A9903F034FE8E
:102D5000159023990B9803F09BFF0A9024990C98E7
:102D600003F096FF089025990D9803F091FF0790C6
:102D7000089903F021FE09900A9903F01DFE1690B0
:102D800000202C49CDE900100846D0F810010A9027
:102D90000846D0F838010990014611A80A9B0E9AFE
:102DA000FFF7BDF900BF27B000BD2DE9F04FD3B04C
:102DB00021480168214803F06BFF52901D48D0F86C
:102DC0001841D0F81C91D0F820A1042038903990F7
:102DD000269027901490159002900390204603F0BF
:102DE000BFFD0746164A174B03F0AAFA0546002214
:102DF000154B03F0F9F8CDE9000103F007F804469C
:102E0000484603F0ADFD0E4A0E4BCDE9000103F03C
:102E100097FA054600220C4B03F0E6F8074602F04D
:102E2000F5FF8146504603F09BFD054A054BCDE971
:102E300000010BE0A400002004000020BD3786350F
:102E40006E861BF0F92109400080664003F078FA95
:102E5000054600227D4B03F0C7F8074602F0D6FF77
:102E6000824600204E904F94CDF84091CDF844A179
:102E70004AAA4EA97648FEF764FF529803F070FD07
:102E800007460022734B03F05BFA054602F0BEFFD3
:102E900083464AAA59464AA8FFF775F86C4A4AA9D8
:102EA0001046FFF756F86A48FEF7F5FF4FF07E50E0
:102EB0003A902146529803F0EBFE80F000454FF027
:102EC0008041284603F0DAFD38A9C8604946529887
:102ED00003F0DEFE80F000454FF08041284603F00D
:102EE000CDFD38A908615146529803F0D1FE80F01B
:102EF00000454FF08041284603F0C0FD38A94861E5
:102F00002146529803F0C4FE05464FF0804103F07D
:102F1000B5FD38A988614FF07E5138A8C16151468E
:102F2000529803F0B5FE05464FF0804103F0A6FD30
:102F3000014638A801624946529803F0A9FE80F084
:102F400000454FF08041284603F098FD014638A81F
:102F500041624946529803F09BFE05464FF080417E
:102F600003F08CFD38A988625146529803F090FE18
:102F700080F000454FF08041284603F07FFD014678
:102F800038A8C1624FF07E5101632146529803F088
:102F90007FFE05464FF0804103F070FD014638A8E2
:102FA00041635146529803F073FE05464FF080414D
:102FB00003F064FD38A988634946529803F068FE1F
:102FC00005464FF0804103F059FD014638A8C16322
:102FD0002146529803F05CFE80F000454FF080419E
:102FE000284603F04BFD014638A801644FF07E519E
:102FF000416426A9FEF708FE14AA1549A03138A895
:10300000FEF77AFD02AA26A914A8FEF775FD104A5C
:10301000A032A2F1900102A8FEF71AFD53B0BDE85C
:10302000F08F70B504460D460B48006820B9FEF7D6
:10303000C5FF01200849086029462046FFF7B5FE74
:1030400029462046FFF7FFF870BD0000008066406B
:10305000B00000200000E03F340000200948804715
:1030600009480047FEE7FEE7FEE7FEE7FEE7FEE76A
:10307000FEE7FEE7FEE7FEE704480549054A064B82
:103080007047000079310008ED0000084002002080
:103090004008002040040020400400200CB500201F
:1030A000019000906B48006840F4803069490860E6
:1030B00000BF6848006800F4003000900198401C90
:1030C0000190009818B90198B0F5A06FF1D161484E
:1030D000006810F4003F02D00120009001E00020C1
:1030E00000900098012842D15B48006840F0100031
:1030F000594908600846006820F003000860084647
:10310000006840F002000860524840685149486039
:103110000846406848600846406840F4806048605F
:103120000846406820F47C1048600846406840F437
:10313000E81048600846006840F08070086000BFF2
:103140004448006810F0007FFAD04248406820F000
:103150000300404948600846406840F0020048606B
:1031600000BF3C48406800F00C000828F9D10CBDB5
:1031700010B5FFF793FF10BD10B53648006840F05A
:103180000100344908600846406834490840314924
:10319000486008460068324908402E4908600846E1
:1031A000006820F4802008600846406820F4FE0093
:1031B00048604FF41F008860FFF7DAFF4FF00060AF
:1031C0002849086010BD10B5002100200022214BC5
:1031D0005B6803F00C0121B1042906D0082928D12D
:1031E00007E0214B214C236027E01F4B1F4C23603D
:1031F00023E0184B5B6803F47010164B5B6803F414
:103200008032022303EB904022B9194B4343174C01
:1032100023600DE00F4B5B6813F4003F04D0144BA8
:103220004343124C236003E00F4B43430F4C236096
:1032300003E00D4B0D4C236000BF00BF054B5B68E6
:10324000C3F303130B4CE15C084B1B68CB40074CEA
:10325000236010BD00100240002002400000FFF873
:10326000FFFFF6FE08ED00E000127A0038000020B3
:1032700000093D003C00002031490143314A116002
:10328000704770B5002100230F22C4780CB32D4C79
:10329000246804F4E064C4F5E064210AC1F1040385
:1032A000CA40447804FA03F18478144021430901A8
:1032B000254C0678A155047804F01F050124AC4084
:1032C00005786D114FF0E02606EB8505C5F8004145
:1032D00009E0047804F01F050124AC401B4D06787A
:1032E000761145F8264070BD194A0A400243154B35
:1032F0001B1F1A60704739B1124A121D126802432F
:10330000104B1B1D1A6006E00E4A121D1268824304
:103310000C4B1B1D1A607047042808D14FF0E021A8
:10332000096941F004014FF0E022116107E04FF01C
:10333000E021096921F004014FF0E022116170479A
:103340000000FA050CED00E000E400E080E100E0A0
:1033500080FFFF1FDD48006840F00100DB49086086
:1033600008464068DA490840D8494860084600687D
:10337000D8490840D54908600846006820F48020F4
:1033800008600846406820F4FE0048604FF41F00C3
:1033900088607047CD49096821F48031CB4A1160BB
:1033A0001146096821F480211160B0F5803F03D0F7
:1033B000B0F5802F0ED106E0C449096841F4803190
:1033C000C24A116007E0C149096841F4A021BF4A1F
:1033D000116000E000BF00BF704710B50146002239
:1033E000002300204A11012A02D1B84C236806E0CC
:1033F000022A02D1B54C236A01E0B44C636A01F0A1
:103400001F02012494401C4201D0012000E0002052
:1034100010BD38B5002000900024002500BF3120E9
:10342000FFF7DBFF05460098401C00900098B0F5C0
:10343000A06F01D0002DF2D03120FFF7CEFF08B1F0
:10344000012400E00024204638BD014600209F4AA8
:10345000106820F0F80040EAC100106070479E49F3
:103460000860704702460020984B586820F47C1092
:1034700042EA01031843954B586070479649086625
:10348000704701460020914A506820F0030008432D
:10349000506070478D48406800F00C00704701464E
:1034A00000208A4A506820F0F000084350607047BE
:1034B00001460020854A506820F4E06008435060CF
:1034C000704701460020814A506820F4605040EA6D
:1034D000C1005060704729B17C4A527A02437B4B4D
:1034E0005A7204E0794A527A8243784B5A72704792
:1034F0007A490860704701460020744A506820F4F9
:1035000040400843506070470021754A11706F4A6F
:1035100082F82010012802D0042808D103E00121FC
:103520006F4A117004E005216D4A117000E000BF80
:1035300000BF70476B49086070476449096A0143DE
:10354000624A11627047674944390860704730B574
:1035500000210022002400235C4D6D6805F00C0161
:1035600021B1042905D0082923D105E05E4D05606D
:1035700022E05D4D05601FE0544D6D6805F470124A
:10358000524D6D6805F48034022505EB92421CB95A
:10359000564D554305600BE04C4D6D6815F4003FEA
:1035A00003D0524D5543056002E04F4D5543056031
:1035B00002E04D4D056000BF00BF444D6D6805F051
:1035C000F00109094A4D6B5C0568DD4045603F4DDF
:1035D0006D6805F4E061090A454D6B5C4568DD40A6
:1035E00085603A4D6D6805F46051C90A404D6B5CC9
:1035F0004568DD40C560354D6D6805F44041890B77
:103600003C4D6B5CC568B5FBF3F5056130BD29B178
:103610002E4A526902432D4B5A6104E02B4A5269EB
:1036200082432A4B5A61704729B1284A9269024362
:10363000264B9A6104E0254A92698243234B9A61A2
:10364000704729B1214AD2690243204BDA6104E074
:103650001E4AD26982431D4BDA61704729B11B4A69
:10366000D2680243194BDA6004E0184AD2688243F8
:10367000164BDA60704729B1144A12690243134BA2
:103680001A6104E0114A12698243104B1A617047B3
:1036900014494039086070470F49C86470470B49A6
:1036A000C87170470948406A40F080700749486215
:1036B000704701460020054A92680A4201D0012065
:1036C00000E00020704701498872704700100240F6
:1036D0000000FFF8FFFFF6FE00004242D800424221
:1036E000201002408004424200127A0000093D008E
:1036F0004C0000205C00002010B50446CA488442FB
:1037000008D101210420FFF7A9FF00210420FFF7C1
:10371000A5FF46E0C548844208D101210820FFF7F3
:103720009DFF00210820FFF799FF3AE0C04884423E
:1037300008D101211020FFF791FF00211020FFF791
:103740008DFF2EE0BB48844208D101212020FFF7E5
:1037500085FF00212020FFF781FF22E0B648844248
:1037600008D101214020FFF779FF00214020FFF719
:1037700075FF16E0B148844208D101218020FFF78F
:103780006DFF00218020FFF769FF0AE0AC4884420A
:1037900007D101218015FFF761FF0021A015FFF778
:1037A0005DFF10BD10B501210846FFF757FF00214E
:1037B0000120FFF753FF10BD2DE9F041024600251F
:1037C0000026002000230024002791F803C00CF0FD
:1037D0000F0591F803C01CF0100F03D091F802C040
:1037E0004CEA050591F800C0BCF1000F31D0146817
:1037F00000202BE04FF0010C0CFA00F3B1F800C0F0
:103800000CEA03069E4220D183004FF00F0C0CFA05
:1038100003F7BC4305FA03FC4CEA040491F803C027
:10382000BCF1280F06D14FF0010C0CFA00FCC2F8D5
:1038300014C00AE091F803C0BCF1480F05D14FF065
:10384000010C0CFA00FCC2F810C0401C0828D1D3AF
:103850001460B1F800C0BCF1FF0F34DD54680020E3
:103860002EE000F1080C4FF0010808FA0CF3B1F853
:1038700000C00CEA03069E4221D183004FF00F0CDA
:103880000CFA03F7BC4305FA03FC4CEA040491F874
:1038900003C0BCF1280F05D100F1080C08FA0CF8A0
:1038A000C2F8148091F803C0BCF1480F07D100F1B1
:1038B000080C4FF0010808FA0CF8C2F81080401C00
:1038C0000828CED35460BDE8F0814FF6FF71018027
:1038D000022181700421C170704702460020936864
:1038E0000B4201D0012000E00020704701468868AB
:1038F00080B2704702460020D3680B4201D00120FD
:1039000000E0002070470146C86880B2704701613E
:103910007047416170470AB1016100E04161704741
:10392000C16070474FF480320A43826181618261D5
:1039300082698269704702460020424B18684FF640
:103940008073184040EA021008433E4B18607047ED
:103950003D49C8617047F0B50A46002300240021A4
:10396000002500F00046B6F1004F02D1354EF16956
:1039700001E0344E7168C0F3034583B200F4401691
:10398000B6F5401F08D121F070612E4E766826F002
:1039900070662C4F7E6012E000F48016B6F5801F32
:1039A00006D1032606FA05F4A14341F0706106E052
:1039B000460D360103FA06F6B14341F0706122B1BB
:1039C000460D360103FA06F6314300F00046B6F123
:1039D000004F02D11B4EF16101E01A4E7160F0BD43
:1039E00030B500228B071C0F0F2303FA04F2154B8E
:1039F00008338C1053F824309343124C08348D1044
:103A000044F8253023468C1053F824308C07240FBB
:103A100000FA04F423430B4C08348D1044F825308D
:103A200030BD0A490860704700080140000C0140A1
:103A3000001001400014014000180140001C01402A
:103A4000002001400000014000002042DC00204234
:103A500001460020FE4A106800F03800084310605C
:103A60007047FB49096821F00801F94A11601146C5
:103A70000968014311607047F549096821F0100198
:103A8000F34A116011460968014311607047F1481B
:103A9000EF494860F04848607047EE48EC4948609C
:103AA000ED4848607047EA48006940F08000E84906
:103AB00008617047E648006940F08000E449086109
:103AC00070470420E249C96811F0010F01D00120BC
:103AD0000EE0DF49C96811F0040F01D0022007E0B1
:103AE000DB49C96811F0100F01D0032000E0042069
:103AF000704700B502460423FFF7E3FF034603E0E7
:103B0000FFF7DFFF0346521E012B01D1002AF7D138
:103B100002B90523184600BD30B5044604254FF40C
:103B20003020FFF7E6FF0546042D17D1C84800698D
:103B300040F00200C649086108464461006940F04F
:103B4000400008614FF43020FFF7D3FF0546C0481E
:103B5000006941F6FD710840BD490861284630BD45
:103B600010B504244FF43020FFF7C3FF0446042CA3
:103B700016D1B748006940F00400B549086108460D
:103B8000006940F0400008614FF43020FFF7B1FFBA
:103B90000446AF48006941F6FB710840AC49086132
:103BA000204610BD00B502460423FFF78AFF0346F6
:103BB00003E0FFF786FF0346521E012B01D1002AC6
:103BC000F7D102B90523184600BD10B504244FF4FF
:103BD0003020FFF7E7FF0446042C16D19C4800690B
:103BE00040F004009A4908610846006940F040002E
:103BF00008614FF43020FFF7D5FF04469448006970
:103C000041F6FB71084092490861204610BD002032
:103C10008F49C96911F0020F01D0012000E0002096
:103C2000704730B5A5250424FFF7F1FF00B100254A
:103C30004FF43020FFF75DFF0446042C3AD185484D
:103C400083498860844888600846006940F0200005
:103C500008610846006940F0400008614FF43020D8
:103C6000FFF747FF0446042C1BD17948006941F651
:103C7000DF710840764908610846006940F010008D
:103C8000086176480580E002FFF733FF0446052C03
:103C900010D06F48006941F6EF7108406C49086127
:103CA00008E0052C06D06A48006941F6EF7108402B
:103CB00067490861204630BD78B506460C460425A4
:103CC00000200090E802FFF714FF0546042D24D1E0
:103CD0005F48006940F001005D4908613480E802F6
:103CE000FFF707FF0546042D10D1B01C0090200CF3
:103CF00000990880E802FFF7FCFE05465448006979
:103D000041F6FE7108405249086106E050480069DA
:103D100041F6FE7108404E490861284678BD70B5ED
:103D200004460D460426F002FFF7E3FE0646042E85
:103D300011D14748006940F00100454908612580DC
:103D4000F002FFF7D6FE06464148006941F6FE71D3
:103D500008403F490861304670BD70B505460E46C3
:103D60000424E002FFF7C5FE0446042C17D13948AD
:103D700037498860384888600846006940F010007C
:103D800008612E80E002FFF7B4FE0446052C06D041
:103D90002F48006941F6EF7108402D49086120461F
:103DA00070BD2DE9F04304464FF6FF763746B04626
:103DB000B1460425E443E6B2C4F30727C4F3074839
:103DC0004FEA1469E802FFF794FE0546042D49D135
:103DD00020481F498860204888600846006940F0F4
:103DE00010000861FF2E06D01C4808300680E8024B
:103DF000FFF77FFE0546042D08D1FF2F06D0174898
:103E00000A300780E802FFF774FE0546042D0AD148
:103E1000B8F1FF0F07D011480C30A0F80080E8027D
:103E2000FFF767FE0546042D0AD1B9F1FF0F07D051
:103E30000A480E30A0F80090E802FFF75AFE054647
:103E4000052D0FD00248006941F6EF71084007E0E8
:103E50000020024023016745AB89EFCD00F8FF1F2A
:103E6000664908612846BDE8F08330B5054604245C
:103E70004FF43020FFF73DFE0446042C41D160484A
:103E80005E4988605F4888600846006940F020000D
:103E900008610846006940F0400008614FF4302096
:103EA000FFF727FE0446042C22D15448006941F64E
:103EB000DF710840514908610846006940F0100070
:103EC00008611DB100205049088002E0A5204E493C
:103ED00008804FF43020FFF70CFE0446052C10D06C
:103EE0004648006941F6EF7108404449086108E01E
:103EF000052C06D04148006941F6DF7108403F4972
:103F00000861204630BDF0B505460E46174604242C
:103F10003B483A4988603B488860E002FFF7E9FD8A
:103F20000446042C19D13548006940F0100033498B
:103F3000086147F0F800304328433349891C088062
:103F4000E002FFF7D6FD0446052C06D02B48006999
:103F500041F6EF710840294908612046F0BD274825
:103F6000C069800870472548006A704700202349CF
:103F7000096811F0200F01D0012000E000207047F7
:103F800029B11E4A126902431C4B1A6104E01B4A04
:103F900012698243194B1A617047014600200129BA
:103FA00008D1164AD26912F0010F01D0012008E0B1
:103FB000002006E0114AD2680A4201D0012000E048
:103FC000002070470D49C860704704200B49C9683C
:103FD00011F0010F01D001200EE00849C96811F06D
:103FE000040F01D0022007E00449C96811F0100F46
:103FF00001D0032000E004207047000000200240B0
:1040000023016745AB89EFCD00F8FF1F10B50446CB
:10401000FE48844208D10121C014FFF71FFB002194
:10402000E014FFF71BFBC4E0B4F1804F08D101217D
:104030000846FFF720FB00210120FFF71CFBB8E03A
:10404000F348844208D101210220FFF714FB00212C
:104050000220FFF710FBACE0EE48844208D10121BA
:104060000420FFF708FB00210420FFF704FBA0E079
:10407000E948844208D101210820FFF7FCFA002119
:104080000820FFF7F8FA94E0E448844208D10121BF
:104090001020FFF7F0FA00211020FFF7ECFA88E07B
:1040A000DF48844208D101212020FFF7E4FA0021F3
:1040B0002020FFF7E0FA7CE0DA48844208D10121B1
:1040C0004014FFF7CBFA00216014FFF7C7FA70E045
:1040D000D548844209D10121C804FFF7BFFA002165
:1040E0004FF40020FFF7BAFA63E0D048844209D1C8
:1040F00001210805FFF7B2FA00214FF48010FFF705
:10410000ADFA56E0CA48844209D101214805FFF7BB
:10411000A5FA00214FF40010FFF7A0FA49E0C548C6
:10412000844208D101214020FFF7A5FA0021402058
:10413000FFF7A1FA3DE0C048844208D10121802068
:10414000FFF799FA00218020FFF795FA31E0BB488C
:10415000844208D101218015FFF78DFA0021A015B6
:10416000FFF789FA25E0B648844209D10121080405
:10417000FFF774FA00214FF48030FFF76FFA18E070
:10418000B048844209D101214804FFF767FA0021B1
:104190004FF40030FFF762FA0BE0AB48844208D1DD
:1041A00001218804FFF75AFA00214FF48020FFF71D
:1041B00055FA10BD00220288944B98420ED0994BBC
:1041C00098420BD0B0F1804F08D0914B984205D067
:1041D000904B984202D0904B984204D14FF68F7387
:1041E0001A404B881A438D4B984207D08C4B98420B
:1041F00004D04FF6FF431A40CB881A4302808B88C5
:1042000083850B880385814B98420BD0854B984260
:1042100008D08B4B984205D08A4B984202D08A4BEB
:10422000984201D10B7A038601238382704770B5CF
:10423000002400220023058C4FF6FE7635400584CD
:10424000028C8388048B4FF68F752C40B51E2C4052
:104250000D882C43751E2A400D892A434D882A4318
:104260006A4DA8420BD06F4DA84208D0744DA842A9
:1042700005D0744DA84202D0734DA84213D14FF619
:10428000F7752A404D892A434FF6FB752A408D88E1
:104290002A434FF6FF652B404FF6FF552B408D8983
:1042A0002B43CD892B4383800483CD88858602846C
:1042B00070BD70B5002400220023058C4FF6EF7608
:1042C00035400584028C8388048B48F6FF752C40AA
:1042D0004FF6FF452C400D884FF6FF7606EA052580
:1042E0002C434FF6DF752A400D8906EA05152A434F
:1042F0004D8806EA05152A43444DA84202D0494D8F
:10430000A8421DD14FF67F752A404D894FF6FF76A2
:1043100006EA05152A434FF6BF752A408D8806EA3E
:1043200005152A434FF6FF352B404FF2FF752B4002
:104330008D8906EA85052B43CD8906EA85052B4341
:1043400083800483CD880587028470BD70B5002406
:1043500000220023058C4FF6FF6635400584028C51
:104360008388848B4FF68F752C404FF6FC752C405C
:104370000D882C434FF6FF552A400D894FF6FF76E6
:1043800006EA05252A434D8806EA05252A431F4DDE
:10439000A84202D0234DA8421DD14FF2FF752A40FA
:1043A0004D894FF6FF7606EA05252A434FF6FF357D
:1043B0002A408D8806EA05252A434EF6FF752B40D4
:1043C0004DF6FF752B408D8906EA05152B43CD89E7
:1043D00006EA05152B4383808483CD888587028474
:1043E00070BD70B5002200230024058C4EF6FF76C8
:1043F00035400584038C8488828B48F6FF752A40FB
:104400004FF6FF452A400D8820E00000002C0140B7
:104410000004004000080040000C00400010004074
:104420000014004000340140004C014000500140A5
:104430000054014000180040001C004000200040D3
:104440000040014000440140004801404FF6FF7623
:1044500006EA05252A434DF6FF752B400D8906EA2D
:1044600005352B434D8806EA05352B43FA4DA84206
:1044700002D0FA4DA84208D14BF6FF752C408D8929
:104480004FF6FF7606EA85152C4384808283CD881B
:10449000A0F84050038470BD828B4FF2FF331A4066
:1044A0008283828B4FF6FF7303EA01231A438283D0
:1044B0007047F0B50C461546002200210026078CF7
:1044C0004EF6FF7C07EA0C070784828B018C4FF6BF
:1044D000FF7707EA043640F6FF473A404FF6FF778A
:1044E00007EA05273A434FF6FF7707EA03373A43CF
:1044F000D94FB8420ED0D94FB8420BD0B0F1804F4F
:1045000008D0D74FB84205D0D64FB84202D0D64FC8
:10451000B84206D14DF6FF77394046F4805739430B
:1045200005E047F6FF57394044F48057394382830A
:104530000184F0BD828B4FF6F3731A408283828B25
:104540000A4382837047F0B50C46154600220021CD
:104550000026078C4FF6FF6C07EA0C070784828B56
:10456000018C4FF6FF7707EA04264FF60C773A40A6
:104570004FF6FF7707EA03172F433A43B64FB84287
:104580000ED0B64FB8420BD0B0F1804F08D0B44F28
:10459000B84205D0B34FB84202D0B34FB84206D1AB
:1045A0004FF6FF57394046F48077394305E04FF224
:1045B000FF57394044F48077394382830184F0BD4A
:1045C000028B4FF2FF331A400283028B4FF6FF73C8
:1045D00003EA01231A4302837047F0B50C461546DF
:1045E000002200210026078C4FF6EF7C07EA0C071B
:1045F0000784028B018C4FF6FF7707EA041640F61A
:10460000FF473A404FF6FF7707EA03373A434FF642
:10461000FF7707EA05273A438F4FB8420ED08F4FF6
:10462000B8420BD0B0F1804F08D08D4FB84205D0C2
:104630008C4FB84202D08C4FB84206D14FF6DF778C
:10464000394046F01007394305E04FF65F773940AF
:1046500044F01007394302830184F0BD028B4FF60A
:10466000F3731A400283028B0A4302837047F0B54A
:104670000C46154600220021068C4FF6FE773E4080
:104680000684028B018C4FF60C7632407E1C06EAC3
:1046900003162E433243704EB0420ED06F4EB042DE
:1046A0000BD0B0F1804F08D06D4EB04205D06D4EAA
:1046B000B04202D06C4EB04206D14FF6FD7631408A
:1046C00044F00106314305E04FF6F576314044F001
:1046D0000106314302830184F0BD70B505460C46E6
:1046E0005D4885420ED05D4885420BD0B5F1804FC4
:1046F00008D05B48854205D05A48854202D05A48C6
:10470000854200D100E000BF208850B92389A288EB
:1047100061882846FFF7ABFFE1882846FFF79EFF38
:1047200025E0208804280AD12389A28861882846A8
:10473000FFF753FFE1882846FFF742FF17E0208884
:1047400008280AD12389A28861882846FFF7FBFE42
:10475000E1882846FFF7EEFE09E02389A2886188F8
:104760002846FFF7A6FEE1882846FFF795FE70BDB4
:104770002DE9F04105460C4600260127608808B95E
:10478000022600E00026A088012801D1022700E0CF
:1047900001272088A0B92389A28861882846FFF7CD
:1047A00066FFE1882846FFF759FF23893A463146DC
:1047B0002846FFF712FFE1882846FFF701FF13E0C4
:1047C0002389A28861882846FFF707FFE1882846E9
:1047D000FFF7F6FE23893A4631462846FFF747FFA2
:1047E000E1882846FFF73AFFBDE8F0810A884B8848
:1047F0001A438B881A43CB881A430B891A434B8977
:104800001A438B891A43A0F8442070474FF6FF7172
:10481000818000210180C1804180017270470021A8
:10482000018041808180C180018141818181C1817C
:104830007047002101804180012181800021C180D9
:10484000018170470021018041808180C180018108
:104850004181818170470000002C014000340140FB
:104860000004004000080040000C004021B1028814
:1048700042F00102028004E002884FF6FE731A4003
:104880000280704731B1B0F8442042F40042A0F8F1
:10489000442005E0B0F84420C2F30E02A0F8442002
:1048A00070471AB183890B43838102E083898B436C
:1048B000838170478182704741EA0203A0F8483043
:1048C00070471AB183890B43838102E083898B434C
:1048D0008381704701894FF6F8721140018170475A
:1048E0000A46002101894FF68F7319401143018157
:1048F000704730B504460D4629462046FFF7F0FFC5
:10490000208940F00700208130BD2DE9F0410446A8
:104910000D4616461F46602D06D13B460122314604
:104920002046FFF75AFE05E03B460122314620466D
:10493000FFF79DFE29462046FFF7D2FF208940F071
:1049400007002081BDE8F08130B50C4600210189C7
:10495000C9B24FF6FF7505EA0325154325432943E0
:10496000018130BD2DE9F04105460E4617469846B7
:10497000002443463A4631462846FFF7E5FF2C8996
:104980004FF6F870044044F007044FF68F7004406F
:1049900044F070042C81BDE8F081F0B504460D466A
:1049A00016461F463B46324629462046FFF7CCFFB7
:1049B000208940F480402081F0BD018582827047CB
:1049C0000A46002101884FF68F7319401143018078
:1049D0007047F0B50C4615461E4600210022002304
:1049E0000189028B038C4FF6F877394021434FF64B
:1049F000FC473A4040F201173A434FF6DD773B401F
:104A00004FF6FF7707EA06172F433B4301810283E6
:104A10000384F0BD0A460021018B4FF68F731940C5
:104A20001143018370470A460021018B48F6FF734A
:104A300019404FF6FF7303EA0223194301837047BD
:104A40000A460021818B4FF68F73194011438183F1
:104A500070470A460021818B48F6FF7319404FF6D4
:104A6000FF7303EA022319438183704721B102884F
:104A700042F08002028004E002884FF67F731A4001
:104A80000280704721B1828842F00402828004E0F3
:104A900082884FF6FB731A408280704721B182886A
:104AA00042F00802828004E082884FF6F7731A40D1
:104AB0008280704721B1828842F00102828004E046
:104AC00082884FF6FE731A40828070470A460021A2
:104AD000018B4FF6F77319401143018370470A4663
:104AE0000021018B4FF2FF7319404FF6FF7303EA69
:104AF00002231943018370470A460021818B4FF638
:104B0000F77319401143818370470A460021818B56
:104B10004FF2FF7319404FF6FF7303EA0223194364
:104B2000818370470A460021018B4FF6FB731940C1
:104B30001143018370470A460021018B4FF6FF3372
:104B400019404FF6FF7303EA0223194301837047AC
:104B50000A460021818B4FF6FB7319401143818374
:104B600070470A460021818B4FF6FF3319404FF6FC
:104B7000FF7303EA02231943818370470A46002129
:104B8000018B4FF67F7319401143018370470A462A
:104B90000021018BC1F30E014FF6FF7303EA0223DC
:104BA0001943018370470A460021818B4FF67F73BA
:104BB00019401143818370470A460021818BC1F35C
:104BC0000E014FF6FF7303EA0223194381837047F6
:104BD0000A460021018C4FF6FD73194011430184F0
:104BE00070470A460021018C4FF6F77319401143B4
:104BF000018470470A460021018C4FF6DF7319408B
:104C00004FF6FF7303EA02131943018470470A4603
:104C10000021018C4FF67F7319404FF6FF7303EAB2
:104C200002131943018470470A460021018C4FF694
:104C3000FF5319404FF6FF7303EA0223194301841F
:104C400070470A460021018C4FF2FF7319404FF65E
:104C5000FF7303EA02231943018470470A460021C7
:104C6000018C4DF6FF7319404FF6FF7303EA0233D0
:104C700019430184704730B5002301248C40A3B24E
:104C8000048C9C430484048C02FA01F5ADB22C43DD
:104C9000048430BD30B5002304248C40A3B2048CBE
:104CA0009C430484048C02FA01F5ADB22C430484C5
:104CB00030BD70B503460020002418461830012589
:104CC0008D40ACB21D8CA5431D8409B1082909D1C2
:104CD00000EB6100056825F0700505600568154367
:104CE00005600EE00D1FC5F34E052844056825F448
:104CF000E045056005684FF6FF7606EA0226354373
:104D0000056070BD21B1028842F00202028004E019
:104D100002884FF6FD731A400280704721B1028865
:104D200042F00402028004E002884FF6FB731A404E
:104D30000280704721B1828842F08002828004E0C4
:104D400082884FF67F731A408280704702884FF640
:104D5000F7731A40028002880A43028070478288F3
:104D60004FF68F731A40828082880A438280704790
:104D700002894FF6F8731A40028102890A430281C0
:104D8000704702894FF67F731A40028102890A43F5
:104D900002817047818470478185704781867047A2
:104DA0000187704781877047A0F8401070470288DC
:104DB0004FF6FF431A40028002880A430280704780
:104DC0000146888E70470146088F70470146888FDC
:104DD00070470146B1F8400070470146888C704723
:104DE0000146088D704702460020138A0B4201D00D
:104DF000012000E000207047CA430282704730B5AE
:104E00000246002000230024158A05EA0103958943
:104E100005EA010413B10CB1012000E0002030BD0F
:104E2000CA4302827047000010B50446FB48844222
:104E300009D101218803FEF711FC00214FF48040C5
:104E4000FEF70CFC32E0F648844209D10121480407
:104E5000FEF711FC00214FF40030FEF70CFC25E0BA
:104E6000F048844209D101218804FEF704FC0021A6
:104E70004FF48020FEF7FFFB18E0EB48844209D195
:104E80000121C804FEF7F7FB00214FF40020FEF7D4
:104E9000F2FB0BE0E548844208D101210805FEF74A
:104EA000EAFB00214FF48010FEF7E5FB10BD2DE971
:104EB000F04786B005460E460024A24600BFA14634
:104EC0000027B08900B100BF2F462C8A4CF6FF7036
:104ED0000440F08804432C82AC894EF6F310044061
:104EE000B08831890843718908430443AC81AC8A96
:104EF0004FF6FF400440B0890443AC8201A8FEF79E
:104F000026FBC648874202D1DDF810A001E0DDF89B
:104F10000CA0A88910F4004F08D00AEBCA0000EBDF
:104F20000A1031684900B0FBF1F807E00AEBCA004B
:104F300000EB0A1031688900B0FBF1F86420B8FB7F
:104F4000F0F004012009642101FB1089A88910F404
:104F5000004F08D0322000EBC900B0FBF1F000F0A8
:104F60000700044308E0322000EB09106421B0FB85
:104F7000F1F000F00F0004432C8106B0BDE8F0878B
:104F80004FF41651016000218180C18001810C2104
:104F9000418100218181704710B502460020108AAE
:104FA0004FF2FF0318400B884C8823438C8823431F
:104FB000CC8823431843108210BD0021018041801A
:104FC0008180C180704721B1828942F40052828180
:104FD00004E082894DF6FF731A4082817047F0B574
:104FE00003460024002600250020A1F510676A3F33
:104FF00000D100BF1846C1F3421401F01F0601277B
:1050000007FA06F5012C01D10C3004E0022C01D185
:10501000103000E014301AB107682F43076002E037
:105020000768AF430760F0BD1AB1838A0B438382E0
:1050300002E0838A8B4383827047028A4FF6F073C3
:105040001A400282028A0A430282704782894FF222
:10505000FF731A40828182890A438281704721B19D
:10506000828942F00202828104E082894FF6FD7358
:105070001A4082817047028A4FF6DF731A4002821B
:10508000028A0A430282704721B1028A42F48042B6
:10509000028204E0028A4BF6FF731A4002827047D4
:1050A000C1F308028280704701468888C0F3080077
:1050B0007047818941F0010181817047028BD2B232
:1050C0000283028B42EA012202837047028B02F4C0
:1050D0007F420283028B0A430283704721B1828A96
:1050E00042F02002828204E0828A4FF6DF731A4087
:1050F0008282704721B1828A42F01002828204E0EB
:10510000828A4FF6EF731A408282704721B1828AF9
:1051100042F00802828204E0828A4FF6F7731A4056
:105120008282704721B1828942F40042828103E089
:105130008289C2F30E028281704721B1828A42F4D1
:105140000062828204E0828A4FF2FF731A408282F8
:105150007047828A4FF6FB731A408282828A0A4322
:105160008282704721B1828A42F00202828204E088
:10517000828A4FF6FD731A408282704702460020F1
:10518000B1F5007F00D100BF13880B4201D0012090
:1051900000E00020704701F40072B2F5007F00D1FA
:1051A00000BFCA430280704770B502460024002346
:1051B00000250020A1F510666A3E00D100BFC1F3B2
:1051C000421501F01F03012606FA03F3012D02D157
:1051D0009689334006E0022D02D1168A334001E061
:1051E000968A33400C12012606FA04F416883440DD
:1051F00013B10CB1012000E0002070BD10B50022F9
:105200000023A1F510646A3C00D100BF0A120124FA
:105210009440A3B2DC43048010BD0000003801407C
:105220000044004000480040004C00400050004056
:1052300010B50446BE48844208D101218014FEF70F
:105240000DFA0021A014FEF709FA16E0B9488442CD
:1052500008D101210014FEF70EFA00212014FEF7F8
:105260000AFA0AE0B448844207D10121C013FEF7CC
:1052700002FA0021E013FEF7FEF910BD10B500227E
:10528000028802F441520B884C8823438C882343C4
:10529000CC8823430C8923434C8923438C892343A3
:1052A000CC8923431A430280838B4FF2FF7423403F
:1052B00083830B8A038210BD2DE9F04F85B005462C
:1052C0000C464FF0000902274FF000084FF0010B89
:1052D0000026B246A88B4FF240010840A883022066
:1052E0002884B5F81C90A068022801D100BF38E0DE
:1052F000A08810B94FF0010B01E04FF0020B8D4870
:10530000854200D100E000BF6846FEF720F9DDF8D5
:1053100000A0E088B0F5007F0AD14FEA1A2000EB28
:1053200080004000A168B0FBF1F0401D86B20BE0A8
:105330004FEA4B10BAFBF0F000EB80004000A16890
:10534000B0FBF1F0401D86B20A20B6FBF0F606F085
:105350000108A6EB0800C0F34F074FF6FF7000EA04
:105360000828022F01DBFF2F02DD02274FF0000883
:10537000E08840EA080038432884A088A1890843CF
:10538000618808432188084340F4006040EA090925
:10539000A5F81C9005B0BDE8F08F00210180418088
:1053A0008180C180018141818181C1810721018288
:1053B00070470021018041808180C180022181608D
:1053C00000218181704721B1028842F040020280B1
:1053D00004E002884FF6BF731A400280704721B183
:1053E000828B42F48062828304E0828B4FF6FF332B
:1053F0001A408283704730B5002400230C11012528
:10540000A540ABB21AB185881D43858002E085882E
:105410009D43858030BD1AB183880B43838002E0B1
:1054200083888B43838070478181704701468889D8
:105430007047A1F57E42FF3A04D0028842F48072A0
:10544000028004E002884FF6FF631A400280704732
:1054500021B1828842F00402828004E082884FF603
:10546000FB731A408280704702884FF2FF731A4024
:10547000028002880A4302807047018841F480510B
:105480000180704721B1028842F40052028004E09A
:1054900002884DF6FF731A400280704702460020D2
:1054A000012901D0108B00E0908A70470146088ADC
:1054B0007047B1F5804F04D1028842F480420280E7
:1054C00004E002884BF6FF731A40028070470246E0
:1054D000002013890B4201D0012000E0002070471A
:1054E000CA4302817047F0B5024600200024002321
:1054F000002501F00F070126BE40B4B20B110126B2
:105500009E40B3B2968806EA03051689264202D069
:105510000DB1012000E00020F0BD10B5002201F027
:105520000F040123A3409AB2D343038110BD0000AE
:105530000030014000380040003C00400020444959
:105540000860091D0860091D0860091D08604148C0
:105550003F4914310860704700213D498279002A93
:105560003AD00A46126803689A430B461A600A1D2D
:10557000126803689A430B1D1A60027911440A6885
:1055800003681A430A60324A0832126803689A4371
:105590002F4B08331A601A1D126803689A432C4B6C
:1055A0000C331A604279102A0ED11A1F1268036850
:1055B0001A43274B08331A601A1D126803681A43EE
:1055C000234B0C331A600DE02149427911440A68DB
:1055D00003681A430A6005E0027911440A68036807
:1055E0009A430A6070470021016001710C214171EA
:1055F0000021817170471649103109680143144A2E
:1056000010321160704701460020114A14321268AE
:105610000A4201D0012000E0002070470C491431FB
:1056200008607047014600200022094B1B6803EA0E
:105630000102074B14331B680B4202D00AB1012050
:1056400000E00020704702491431086070470000F4
:1056500000040140FFFF0F00704700000FB4044931
:1056600010B503AA029800F087F810BC5DF814FB8F
:10567000280000202DE9F0410E460446002020625B
:105680002046E168884730B3252805D0D4E90121B8
:105690009047206A401CF2E7E168204600278847CF
:1056A000050018D0A5F14100192802D820354FF483
:1056B00000673246294620462760FAF751FD40B17F
:1056C000012804D0F61D26F007060836D8E7361D57
:1056D000D6E72846DAE7206ABDE8F08170B50C46C7
:1056E0000546012A05D02878800600D5EA690023FE
:1056F00002E0012305E05B1C934202D2E05C00283B
:10570000F9D1A869E618C01AA861286A1844286265
:105710002846AFF3008004E0D5E9012114F8010B1D
:105720009047B442F8D32846AFF3008070BD70476D
:1057300070477047704710B500F030F8006810BD32
:1057400010B5044600F02AF8046010BD10B5436996
:1057500013B1AFF3008001E0FFF7C0FF012010BDDF
:10576000127800F124010A7000224A700122EDE74C
:1057700011684FF0FF32E9E7074B70B50D467B44E7
:1057800000F015F80446284600F024F810B14FF058
:10579000FF3070BD204670BD7DBCFFFF00487047E4
:1057A000E001002001694A1C02610878704700B5D9
:1057B0008FB0CDE901310021059105497944CDE94A
:1057C000031011466846FFF755FF0FB000BD0000FB
:1057D000E5FFFFFF007B00F0800070470048704746
:1057E000E00100207546FFF7F9FFAE460500694667
:1057F000534620F00700854618B020B5FDF73CFC65
:10580000BDE820404FF000064FF000074FF00008C1
:105810004FF0000B21F00701AC46ACE8C009ACE842
:10582000C009ACE8C009ACE8C0098D467047044621
:10583000AFF300802046FAF7A5FC490050EAC120EA
:1058400018BF04204A0D18BF40F0010040F2FF725B
:10585000B2EB515F08BF40F00200012808BF0520ED
:1058600070472DE9F0414F1E00EBC7010446D1E916
:10587000000115461E4637F006020DD02A46334673
:1058800000F05EFD7F1E04EBC703D3E9002300F0A8
:10589000EFFA37F00602F1D1022F25D0042F13D0F2
:1058A000062F18BFBDE8F0812A46334600F048FDB8
:1058B000D4E90A2300F0DCFA2A46334600F040FD22
:1058C000D4E9082300F0D4FA2A46334600F038FD24
:1058D000D4E9062300F0CCFA2A46334600F030FD26
:1058E000D4E9042300F0C4FA2A46334600F028FD28
:1058F000D4E9022300F0BCFA2A46334600F020FD2A
:10590000D4E90023BDE8F04100F0B2BA024A002019
:10591000110701F030BB000001FDFFFF2DE9F04D44
:10592000904F21F0004A86B005460C46BA4530DB60
:10593000AAEB070028430CD08B48824501DC1CD120
:10594000DDB106B02846BDE8F04D4FF0010201F090
:1059500012BB864A864B284600F0F2FC07460E46EC
:10596000844A854B2846214600F0EAFC06B03A46B8
:105970003346BDE8F04D00F07BBA0120FFF7E0FEB2
:1059800006B00022BDE8F04D13461046114600F067
:105990002BBB7A48824542DABAF1795F0BDA2846A6
:1059A000FFF74BFF042808BFFFF7B0FF284606B0FB
:1059B0002146BDE8F08D2A460B46104600F0C0FC9B
:1059C000834602466E480E460B4606217844FFF792
:1059D00048FF5A46334600F0B3FC804669488A4681
:1059E0005A46334604217844FFF73BFF5A46334674
:1059F00000F0A6FC00223B4600F03AFA02460B46B5
:105A00004046514600F0F0FA2A46234600F098FC42
:105A100006B02A462346BDE8F04D00F029BA2846D4
:105A200024F0004100223D463B4600F0BDFD4FF012
:105A3000FF3201F0A0FA0646024653480F460B46D5
:105A400006217844FFF70DFF32463B4600F078FC14
:105A5000CDE900014D4832463B4604217844FFF72A
:105A600000FF32463B4600F06BFC00222B4600F064
:105A7000FFF9834602913046394600F09FF980468F
:105A800043480D46504517DCDDE900015A46029BAC
:105A900000F0AAFA42462B4600F052FC42462B4642
:105AA00000F0E6F9012201F066FA304A304B00F0CE
:105AB0006DFE304A304B4CE04FF0000A52460B4628
:105AC000404600F0D5F9CDE9031052462B4610466A
:105AD000194600F035FC32463B4600F065FDDDE935
