:020000040800F2
:10000000D8070020990C00087B0200087D02000838
:100010008102000885020008890200080000000033
:100020000000000000000000000000008F02000837
:100030008D020008000000009102000893020008F1
:10004000B30C0008B30C0008B30C0008B30C000894
:10005000B30C0008B30C0008B30C0008B30C000884
:1000600055020008B30C0008B30C0008B30C0008DC
:10007000B30C0008B30C0008B30C0008B30C000864
:10008000B30C0008B30C0008B30C0008B30C000854
:1000900073020008B30C0008B30C0008B30C00088E
:1000A000B30C0008B30C0008B30C0008B30C000834
:1000B000B30C0008B30C0008B30C0008B30C000824
:1000C000B30C0008B30C0008B30C0008B30C000814
:1000D000B30C0008B30C0008B30C0008B30C000804
:1000E000B30C0008B30C0008B30C000800F002F8D1
:1000F00000F05AF80AA090E8000C82448344AAF168
:100100000107DA4501D100F04FF8AFF2090EBAE865
:100110000F0013F0010F18BFFB1A43F0010318473B
:10012000C4330000E43300000A444FF0000C10F820
:10013000013B13F0070408BF10F8014B1D1108BF65
:1001400010F8015B641E05D010F8016B641E01F805
:10015000016BF9D113F0080F1EBF10F8014BAD1C55
:100160000C1B09D16D1E58BF01F801CBFAD505E073
:1001700014F8016B01F8016B6D1EF9D59142D6D3CD
:10018000704700000023002400250026103A28BFF5
:1001900078C1FBD8520728BF30C148BF0B607047F9
:1001A0001FB51FBD10B510BD03F0FDF81146FFF7D8
:1001B000F7FF00F025F803F01BF903B4FFF7F2FF97
:1001C00003BC00F03DFA000001B502E00098401EBB
:1001D000009000980028F9D108BD01464906184A48
:1001E000926942F00102164B9A61164A526822F057
:1001F000E062144B5A601A4652680A435A607047CC
:100200000120FFF7EAFF00F067FA00F083FA00F040
:1002100076FA02F07BFB00F021FA00F0ADF800F076
:10022000AAF90BE00848006840B10848007828B1F6
:10023000002005490860064800F0A3FAF2E7000034
:100240000010024000000140000000200E000020CD
:100250003801002010B5042001F016FE40B1042042
:1002600001F023FE0B4800F064F901200A49086000
:1002700010BD10B500F0DEFA10BD704700BFFEE7FC
:1002800000BFFEE700BFFEE700BFFEE77047704714
:1002900070477047380100200000002000B587B08B
:1002A000012141F2050001F063F918208DF81B00CF
:1002B000E020ADF8180003208DF81A0006A9DB48ED
:1002C00001F022FC0020ADF804004FF48270ADF87C
:1002D00006000020ADF80800ADF80A00ADF80C00EB
:1002E0004FF40070ADF80E001020ADF810000020A3
:1002F000ADF812000720ADF8140001A9CC4800F0B9
:100300006DFE0121CA4800F00EFF07B000BD1FB509
:1003100048208DF80F000420ADF80C0003A9C34855
:1003200001F0F2FB00214FF0006000F0FBFD4FF404
:10033000C06000F0BFFD08208DF8080000208DF897
:1003400009008DF80A0001208DF80B0002A800F0CA
:10035000B6FD0221002001F0EBFC042000900020FB
:100360008DF804000C208DF8050001208DF80600A2
:10037000684601F023FD1FBD08B501210C2001F0E6
:10038000F7F8FFF7C4FF10208DF803001820ADF830
:10039000000003208DF802006946A44801F0B4FB78
:1003A00010208DF80300ADF8000003208DF8020046
:1003B0006946A04801F0A8FBFFF770FF08219B48A1
:1003C00001F04FFC10219B4801F049FC08BD02469A
:1003D000002105E0481CC1B2C82901DD002070479A
:1003E0009348008910F0020FF4D0914882810021D7
:1003F00005E0481CC1B2C82901DD0020EFE78C48A8
:10040000008910F0010FF4D089488089C0B2E6E776
:1004100070B505460C461021864801F022FC28469E
:10042000FFF7D5FF06462046FFF7D1FF1021814890
:1004300001F015FC304670BD70B5044610217D48B2
:1004400001F00FFC2046FFF7C2FFFF20FFF7BFFFC0
:1004500005461021774801F002FC284670BD2DE9C1
:10046000F04107460D4616461021724801F0F9FB8F
:100470003846FFF7ACFF8046002405E0FF20FFF779
:10048000A6FF2855601CC4B2B442F7DB10216948AE
:1004900001F0E5FB4046BDE8F0812DE9F04107465B
:1004A0000C4615461021634801F0DBFB3846FFF788
:1004B0008EFF8046002605E014F8010BFFF787FF4A
:1004C000701CC6B2AE42F7DB10215A4801F0C7FBE0
:1004D0004046BDE8F08170B505460821534801F05B
:1004E000C0FB20222946A020FFF7D7FF08214F4854
:1004F00001F0B5FB00BF04214C4801F096FB002839
:10050000F9D10720FFF798FF044621462720FFF77F
:100510007FFF14F0100F05D0FF21E120FFF778FFD7
:10052000102070BD14F0200F01D02020F9E7FF202B
:10053000F7E770B504460720FFF77EFF054629461A
:100540002720FFF765FF15F0400F12D0082137482C
:1005500001F087FB202221466120FFF780FFFF2169
:10056000E220FFF755FF0821304801F078FB00201A
:1005700070BD0120FCE710B508212C4801F071FB8B
:1005800070212720FFF744FF0021E120FFF740FF03
:100590000021E220FFF73CFF052227492A20FFF730
:1005A0007CFF01212120FFF733FF01212220FFF7EB
:1005B0002FFF00212520FFF72BFF20213120FFF7FF
:1005C00027FF07212620FFF723FF0F212020FFF719
:1005D0001FFF0821154801F042FB10BD10B508218E
:1005E000124801F03EFB052214493020FFF755FF69
:1005F00001212120FFF70CFF01212220FFF708FF36
:1006000032212420FFF704FF00212520FFF700FFFF
:1006100007212620FFF7FCFE0E212020FFF7F8FE21
:100620000821024801F01BFB10BD0000000801403A
:1006300000300140000C01400900002004000020AF
:10064000014600BF7047C2B2214B1A8000BF204A4A
:10065000121F128812F0400FF9D0704700B585B014
:100660004FF4E13000900020ADF80400ADF8060032
:10067000ADF80800ADF80C000C20ADF80A0001211F
:1006800044F2040000F074FF18208DF813004FF4BA
:100690000070ADF8100003208DF8120004A90D4879
:1006A00001F032FA04208DF813000002ADF81000BA
:1006B00004A9084801F028FA69460548001F01F01E
:1006C00002F801210248001F01F089F805B000BDC1
:1006D000043801400008014008B50121242000F041
:1006E00047FF0420ADF8000003208DF80200102021
:1006F0008DF8030069464A4801F006FA08BD10B5B6
:10070000002000F099FE0121C80500F03EFF10BD59
:100710007047704708B500214FF0006000F002FC00
:100720004FF4E06000F0C6FB14208DF800000020BC
:100730008DF801008DF8020001208DF80300684655
:1007400000F0BDFB08BD10B5044624B104213448B7
:1007500001F085FA03E00421314801F082FA10BD6E
:1007600010B501212F4801F060FA08B9052010BD2D
:1007700002212C4801F059FA08B90620F7E70020B9
:10078000F5E738B5044600200090A07826490870A7
:10079000E0784870207988706079C87008460078E1
:1007A00022490978884208D11F48407828B91E4854
:1007B000807810B91C48C07858B300201C490870D4
:1007C000012002F00AFC054604222946164802F0E0
:1007D00017FA012002F0E6FA14480078D0B1124866
:1007E0000078B8B900BF124800780128FBD100207A
:1007F0000F490870012002F0F0FB0546042229464B
:10080000684602F0FDF9012002F0CCFA0020074909
:10081000087003E0044800780449087038BD0000FF
:1008200000140140000801400F00002013000020C8
:100830000E00002010B53748006837490880084688
:10084000008800F4806035490988084206D04FF6D8
:10085000FF30304908603249486880472E48008898
:1008600000F400502D490988084203D04DF6FF706E
:10087000284908602848008800F4805027490988E2
:10088000084206D04EF6FF7022490860002000F0B2
:10089000A2F92148008800F4006020490988084234
:1008A0000CD02048007810B100F075F902E0022069
:1008B00000F091F94FF2FF70164908601648008861
:1008C00000F4007015490988084208D04FF6FF501F
:1008D0001049086014480078401C134908700E48FD
:1008E000008800F480700D490988084206D04FF650
:1008F000FF6008490860072000F06DF9064800888D
:1009000000F4004005490988084201D002F01CF8B3
:1009100010BD0000445C0040500000202E0100206B
:1009200058000020F10000201400002010B5002025
:1009300078490968887200F005F900207649086056
:100940004FF43F4075490880084600887249091FE6
:1009500008607348C0796F490968487201E001F086
:10096000C2FF6C480068807A0028F8D005206D49E5
:10097000087010BD10B50020664909688872654985
:100980000968C87202F088F94FF40071002002F083
:100990009BF91021002002F0ACF91821002002F090
:1009A0000EFB5821002002F0FDFA002002F036FA7A
:1009B0005D4890F82C10002002F04EFB002002F061
:1009C00002FA4FF4C061012002F07EF94FF4807109
:1009D000012002F0E7FA0421012002F017FB0021B8
:1009E000012002F09EF92021012002F082F900206E
:1009F00001F007FF10BD70477047014629B901207B
:100A0000444A12681082002070474848FCE710B53D
:100A100004464749204601F01AFC10BD10B50446B3
:100A20004449204601F013FC10BD70B50446002572
:100A3000062C1AD137480068007800F07F000128A2
:100A400013D134480068407978B93248006880781A
:100A5000222802D1AFF23B0512E02E4800688078D0
:100A600021280DD1AFF259050AE02A480068007824
:100A700000F07F00212803D1032C01D1AFF28505BE
:100A80000DB9022070BD234800688561002121480E
:100A9000006841820020A8470020F3E71D48006855
:100AA000C178224801600020704700B5024619480D
:100AB0000068007800F07F00212804D10B2A02D1C1
:100AC000FFF7ECFF00BD0220FCE710B504461A4911
:100AD000204601F0BCFB10BD10B504461749204666
:100AE00001F0B5FB10BD70B504460A480068C57832
:100AF000134800EBC501204601F0A9FB70BD02467A
:100B0000002901DD02207047002A01DD0220FAE7FA
:100B10000020F8E724010020445C00402E01002062
:100B200016340008F000002058000020EC000020DF
:100B3000C4000020BC000020AC000020B400002055
:100B4000CC00002010B50120FFF7FDFD01244C482A
:100B5000046000204B490880084600884849086026
:100B60000020091D08604FF4E050464908800846FF
:100B7000008843490860002010BD10B5012040499D
:100B800008600020091D0860FFF7DDFD03203C49D7
:100B90000860002010BD10B53948006884B244F0E8
:100BA000080437480460006884B244F00404344800
:100BB0000460FFF7ADFD10BD10B53148006884B288
:100BC00024F004042E480460FFF7A3FD4FF43F40D7
:100BD0002B49086010BD70B50546072D01D02A4885
:100BE000057029480078082841D2DFE800F0040A9F
:100BF0001016212E4142FFF7DFFF06202249087020
:100C00003BE0FFF7D9FF04201F49087035E00220C0
:100C10001D494870032008702FE01B484078401E93
:100C2000194948700846407808B90420087024E043
:100C30001348006884B244F0100411480460052091
:100C4000114908700A20487017E00F484078401E8C
:100C50000D4948700846407840B90948006884B298
:100C600024F01004064804600620087005E000BF68
:100C700000BF06200449087000BF00BF70BD00001F
:100C8000405C00402E010020F200002001200149BC
:100C9000087070470E000020094880470948004747
:100CA000FEE7FEE7FEE7FEE7FEE7FEE7FEE7FEE71C
:100CB000FEE7FEE704480549054A064B7047000079
:100CC000B50D0008ED000008D8010020D80700206D
:100CD000D8030020D80300200CB50020019000901C
:100CE0006B48006840F480306949086000BF68487C
:100CF000006800F4003000900198401C01900098BA
:100D000018B90198B0F5A06FF1D16148006810F4EE
:100D1000003F02D00120009001E0002000900098E8
:100D2000012842D15B48006840F010005949086032
:100D30000846006820F0030008600846006840F09C
:100D400002000860524840685149486008464068BF
:100D500048600846406840F4806048600846406843
:100D600020F47C1048600846406840F4E810486071
:100D70000846006840F08070086000BF4448006882
:100D800010F0007FFAD04248406820F0030040494C
:100D900048600846406840F00200486000BF3C4898
:100DA000406800F00C000828F9D10CBD10B5FFF721
:100DB00093FF10BD10B53648006840F0010034497B
:100DC0000860084640683449084031494860084690
:100DD0000068324908402E4908600846006820F43F
:100DE000802008600846406820F4FE0048604FF408
:100DF0001F008860FFF7DAFF4FF0006028490860A5
:100E000010BD10B5002100200022214B5B6803F0CB
:100E10000C0121B1042906D0082928D107E0214B73
:100E2000214C236027E01F4B1F4C236023E0184B0D
:100E30005B6803F47010164B5B6803F48032022386
:100E400003EB904022B9194B4343174C23600DE04C
:100E50000F4B5B6813F4003F04D0144B4343124C18
:100E6000236003E00F4B43430F4C236003E00D4B23
:100E70000D4C236000BF00BF054B5B68C3F3031339
:100E80000B4CE15C084B1B68CB40074C236010BD4A
:100E900000100240002002400000FFF8FFFFF6FEB5
:100EA00008ED00E000127A00F400002000093D0087
:100EB000F800002031490143314A1160704770B594
:100EC000002100230F22C4780CB32D4C246804F4B5
:100ED000E064C4F5E064210AC1F10403CA40447827
:100EE00004FA03F18478144021430901254C067863
:100EF000A155047804F01F050124AC4005786D115C
:100F00004FF0E02606EB8505C5F8004109E00478BE
:100F100004F01F050124AC401B4D0678761145F8FE
:100F2000264070BD194A0A400243154B1B1F1A6028
:100F3000704739B1124A121D12680243104B1B1D33
:100F40001A6006E00E4A121D126882430C4B1B1DEC
:100F50001A607047042808D14FF0E021096941F078
:100F600004014FF0E022116107E04FF0E021096930
:100F700021F004014FF0E022116170470000FA05F2
:100F80000CED00E000E400E080E100E080FFFF1FE6
:100F900010B50446BE48844208D10121801400F0F7
:100FA00001FB0021A01400F0FDFA16E0B9488442CC
:100FB00008D10121001400F002FB0021201400F0F0
:100FC000FEFA0AE0B448844207D10121C01300F0C0
:100FD000F6FA0021E01300F0F2FA10BD10B500227D
:100FE000028802F441520B884C8823438C882343A7
:100FF000CC8823430C8923434C8923438C89234386
:10100000CC8923431A430280838B4FF2FF74234021
:1010100083830B8A038210BD2DE9F04F85B005460E
:101020000C464FF0000902274FF000084FF0010B6B
:101030000026B246A88B4FF240010840A883022048
:101040002884B5F81C90A068022801D100BF38E0C0
:10105000A08810B94FF0010B01E04FF0020B8D4852
:10106000854200D100E000BF684600F014FADDF8C8
:1010700000A0E088B0F5007F0AD14FEA1A2000EB0B
:1010800080004000A168B0FBF1F0401D86B20BE08B
:101090004FEA4B10BAFBF0F000EB80004000A16873
:1010A000B0FBF1F0401D86B20A20B6FBF0F606F068
:1010B0000108A6EB0800C0F34F074FF6FF7000EAE7
:1010C0000828022F01DBFF2F02DD02274FF0000866
:1010D000E08840EA080038432884A088A1890843B2
:1010E000618808432188084340F4006040EA090908
:1010F000A5F81C9005B0BDE8F08F0021018041806B
:101100008180C180018141818181C181072101826A
:1011100070470021018041808180C180022181606F
:1011200000218181704721B1028842F04002028093
:1011300004E002884FF6BF731A400280704721B165
:10114000828B42F48062828304E0828B4FF6FF330D
:101150001A408283704730B5002400230C1101250A
:10116000A540ABB21AB185881D43858002E0858811
:101170009D43858030BD1AB183880B43838002E094
:1011800083888B43838070478181704701468889BB
:101190007047A1F57E42FF3A04D0028842F4807283
:1011A000028004E002884FF6FF631A400280704715
:1011B00021B1828842F00402828004E082884FF6E6
:1011C000FB731A408280704702884FF2FF731A4007
:1011D000028002880A4302807047018841F48051EE
:1011E0000180704721B1028842F40052028004E07D
:1011F00002884DF6FF731A400280704702460020B5
:10120000012901D0108B00E0908A70470146088ABE
:101210007047B1F5804F04D1028842F480420280C9
:1012200004E002884BF6FF731A40028070470246C2
:10123000002013890B4201D0012000E000207047FC
:10124000CA4302817047F0B5024600200024002303
:10125000002501F00F070126BE40B4B20B11012694
:101260009E40B3B2968806EA03051689264202D04C
:101270000DB1012000E00020F0BD10B5002201F00A
:101280000F040123A3409AB2D343038110BD000091
:101290000030014000380040003C0040DD4800685C
:1012A00040F00100DB49086008464068DA49084020
:1012B000D849486008460068D8490840D5490860C0
:1012C0000846006820F4802008600846406820F442
:1012D000FE0048604FF41F0088607047CD490968E0
:1012E00021F48031CB4A11601146096821F4802134
:1012F0001160B0F5803F03D0B0F5802F0ED106E02D
:10130000C449096841F48031C24A116007E0C1490B
:10131000096841F4A021BF4A116000E000BF00BF8E
:10132000704710B501460022002300204A11012A0F
:1013300002D1B84C236806E0022A02D1B54C236AD8
:1013400001E0B44C636A01F01F02012494401C4286
:1013500001D0012000E0002010BD38B50020009031
:101360000024002500BF3120FFF7DBFF0546009871
:10137000401C00900098B0F5A06F01D0002DF2D075
:101380003120FFF7CEFF08B1012400E00024204601
:1013900038BD014600209F4A106820F0F80040EA5E
:1013A000C100106070479E490860704702460020E7
:1013B000984B586820F47C1042EA01031843954B7F
:1013C0005860704796490866704701460020914A68
:1013D000506820F003000843506070478D48406813
:1013E00000F00C007047014600208A4A506820F047
:1013F000F00008435060704701460020854A50685D
:1014000020F4E06008435060704701460020814AA4
:10141000506820F4605040EAC1005060704729B124
:101420007C4A527A02437B4B5A7204E0794A527AE0
:101430008243784B5A7270477A4908607047014678
:101440000020744A506820F44040084350607047C0
:101450000021754A11706F4A82F82010012802D0CD
:10146000042808D103E001216F4A117004E005212E
:101470006D4A117000E000BF00BF70476B49086003
:1014800070476449096A0143624A116270476749BB
:1014900044390860704730B5002100220024002341
:1014A0005C4D6D6805F00C0121B1042905D00829B7
:1014B00023D105E05E4D056022E05D4D05601FE033
:1014C000544D6D6805F47012524D6D6805F480340A
:1014D000022505EB92421CB9564D554305600BE0C1
:1014E0004C4D6D6815F4003F03D0524D55430560D7
:1014F00002E04F4D5543056002E04D4D056000BFD1
:1015000000BF444D6D6805F0F00109094A4D6B5C60
:101510000568DD4045603F4D6D6805F4E061090AEE
:10152000454D6B5C4568DD4085603A4D6D6805F45E
:101530006051C90A404D6B5C4568DD40C560354D62
:101540006D6805F44041890B3C4D6B5CC568B5FB8B
:10155000F3F5056130BD29B12E4A526902432D4B86
:101560005A6104E02B4A526982432A4B5A61704700
:1015700029B1284A92690243264B9A6104E0254A20
:1015800092698243234B9A61704729B1214AD269FB
:101590000243204BDA6104E01E4AD26982431D4BAC
:1015A000DA61704729B11B4AD2680243194BDA60ED
:1015B00004E0184AD2688243164BDA60704729B1BA
:1015C000144A12690243134B1A6104E0114A12696A
:1015D0008243104B1A6170471449403908607047C4
:1015E0000F49C86470470B49C87170470948406A81
:1015F00040F0807007494862704701460020054A64
:1016000092680A4201D0012000E0002070470149A1
:1016100088727047001002400000FFF8FFFFF6FEDE
:1016200000004242D8004242201002408004424260
:1016300000127A0000093D00080100201801002076
:1016400010B50446FB48844209D101218803FFF705
:10165000A9FF00214FF48040FFF7A4FF32E0F648D5
:10166000844209D101214804FFF7A9FF00214FF46A
:101670000030FFF7A4FF25E0F048844209D10121A2
:101680008804FFF79CFF00214FF48020FFF797FFAD
:1016900018E0EB48844209D10121C804FFF78FFF0D
:1016A00000214FF40020FFF78AFF0BE0E548844259
:1016B00008D101210805FFF782FF00214FF48010B7
:1016C000FFF77DFF10BD2DE9F04786B005460E46B9
:1016D0000024A24600BFA1460027B08900B100BF88
:1016E0002F462C8A4CF6FF700440F08804432C826D
:1016F000AC894EF6F3100440B088318908437189F3
:1017000008430443AC81AC8A4FF6FF400440B089E3
:101710000443AC8201A8FFF7BEFEC648874202D14F
:10172000DDF810A001E0DDF80CA0A88910F4004F4E
:1017300008D00AEBCA0000EB0A1031684900B0FB80
:10174000F1F807E00AEBCA0000EB0A1031688900E3
:10175000B0FBF1F86420B8FBF0F00401200964212B
:1017600001FB1089A88910F4004F08D0322000EB4B
:10177000C900B0FBF1F000F00700044308E032209C
:1017800000EB09106421B0FBF1F000F00F000443FE
:101790002C8106B0BDE8F0874FF41651016000219E
:1017A0008180C18001810C214181002181817047AC
:1017B00010B502460020108A4FF2FF0318400B8834
:1017C0004C8823438C882343CC88234318431082BE
:1017D00010BD0021018041808180C180704721B10E
:1017E000828942F40052828104E082894DF6FF73BF
:1017F0001A4082817047F0B5034600240026002578
:101800000020A1F510676A3F00D100BF1846C1F360
:10181000421401F01F06012707FA06F5012C01D139
:101820000C3004E0022C01D1103000E014301AB169
:1018300007682F43076002E00768AF430760F0BD09
:101840001AB1838A0B43838202E0838A8B438382AB
:101850007047028A4FF6F0731A400282028A0A43E6
:101860000282704782894FF2FF731A408281828917
:101870000A438281704721B1828942F0020282814B
:1018800004E082894FF6FD731A4082817047028A14
:101890004FF6DF731A400282028A0A4302827047BF
:1018A00021B1028A42F48042028204E0028A4BF6AD
:1018B000FF731A4002827047C1F3080282807047AA
:1018C00001468888C0F308007047818941F0010112
:1018D00081817047028BD2B20283028B42EA0122DD
:1018E00002837047028B02F47F420283028B0A4319
:1018F0000283704721B1828A42F02002828204E092
:10190000828A4FF6DF731A408282704721B1828A41
:1019100042F01002828204E0828A4FF6EF731A408E
:101920008282704721B1828A42F00802828204E0FA
:10193000828A4FF6F7731A408282704721B18289FA
:1019400042F40042828103E08289C2F30E02828166
:10195000704721B1828A42F40062828204E0828A66
:101960004FF2FF731A4082827047828A4FF6FB73F0
:101970001A408282828A0A438282704721B1828A17
:1019800042F00202828204E0828A4FF6FD731A401E
:101990008282704702460020B1F5007F00D100BF6F
:1019A00013880B4201D0012000E00020704701F4B1
:1019B0000072B2F5007F00D100BFCA4302807047B9
:1019C00070B502460024002300250020A1F5106612
:1019D0006A3E00D100BFC1F3421501F01F0301268A
:1019E00006FA03F3012D02D19689334006E0022D59
:1019F00002D1168A334001E0968A33400C12012648
:101A000006FA04F41688344013B10CB1012000E04A
:101A1000002070BD10B500220023A1F510646A3CBF
:101A200000D100BF0A1201249440A3B2DC43048019
:101A300010BD000000380140004400400048004054
:101A4000004C00400050004010B50446CA48844293
:101A500008D101210420FFF7A5FD00210420FFF794
:101A6000A1FD46E0C548844208D101210820FFF7C6
:101A700099FD00210820FFF795FD3AE0C048844217
:101A800008D101211020FFF78DFD00211020FFF764
:101A900089FD2EE0BB48844208D101212020FFF7B8
:101AA00081FD00212020FFF77DFD22E0B648844221
:101AB00008D101214020FFF775FD00214020FFF7EC
:101AC00071FD16E0B148844208D101218020FFF762
:101AD00069FD00218020FFF765FD0AE0AC488442E3
:101AE00007D101218015FFF75DFD0021A015FFF74B
:101AF00059FD10BD10B501210846FFF753FD002127
:101B00000120FFF74FFD10BD2DE9F04102460025F1
:101B10000026002000230024002791F803C00CF0C9
:101B20000F0591F803C01CF0100F03D091F802C00C
:101B30004CEA050591F800C0BCF1000F31D01468E3
:101B400000202BE04FF0010C0CFA00F3B1F800C0BC
:101B50000CEA03069E4220D183004FF00F0C0CFAD2
:101B600003F7BC4305FA03FC4CEA040491F803C0F4
:101B7000BCF1280F06D14FF0010C0CFA00FCC2F8A2
:101B800014C00AE091F803C0BCF1480F05D14FF032
:101B9000010C0CFA00FCC2F810C0401C0828D1D37C
:101BA0001460B1F800C0BCF1FF0F34DD54680020B0
:101BB0002EE000F1080C4FF0010808FA0CF3B1F820
:101BC00000C00CEA03069E4221D183004FF00F0CA7
:101BD0000CFA03F7BC4305FA03FC4CEA040491F841
:101BE00003C0BCF1280F05D100F1080C08FA0CF86D
:101BF000C2F8148091F803C0BCF1480F07D100F17E
:101C0000080C4FF0010808FA0CF8C2F81080401CCC
:101C10000828CED35460BDE8F0814FF6FF710180F3
:101C2000022181700421C170704702460020936830
:101C30000B4201D0012000E0002070470146886877
:101C400080B2704702460020D3680B4201D00120C9
:101C500000E0002070470146C86880B2704701610B
:101C60007047416170470AB1016100E0416170470E
:101C7000C16070474FF480320A43826181618261A2
:101C800082698269704702460020424B18684FF60D
:101C90008073184040EA021008433E4B18607047BA
:101CA0003D49C8617047F0B50A4600230024002171
:101CB000002500F00046B6F1004F02D1354EF16923
:101CC00001E0344E7168C0F3034583B200F440165E
:101CD000B6F5401F08D121F070612E4E766826F0CF
:101CE00070662C4F7E6012E000F48016B6F5801FFF
:101CF00006D1032606FA05F4A14341F0706106E01F
:101D0000460D360103FA06F6B14341F0706122B187
:101D1000460D360103FA06F6314300F00046B6F1EF
:101D2000004F02D11B4EF16101E01A4E7160F0BD0F
:101D300030B500228B071C0F0F2303FA04F2154B5A
:101D400008338C1053F824309343124C08348D1010
:101D500044F8253023468C1053F824308C07240F88
:101D600000FA04F423430B4C08348D1044F825305A
:101D700030BD0A490860704700080140000C01406E
:101D8000001001400014014000180140001C0140F7
:101D9000002001400000014000002042DC00204201
:101DA000002044490860091D0860091D0860091DDC
:101DB000086041483F4914310860704700213D499F
:101DC0008279002A3AD00A46126803689A430B4681
:101DD0001A600A1D126803689A430B1D1A60027983
:101DE00011440A6803681A430A60324A08321268CA
:101DF00003689A432F4B08331A601A1D1268036850
:101E00009A432C4B0C331A604279102A0ED11A1FB8
:101E1000126803681A43274B08331A601A1D1268A8
:101E200003681A43234B0C331A600DE021494279B1
:101E300011440A6803681A430A6005E002791144F4
:101E40000A6803689A430A607047002101600171C3
:101E50000C214171002181717047164910310968C8
:101E60000143144A10321160704701460020114AA4
:101E7000143212680A4201D0012000E000207047AD
:101E80000C49143108607047014600200022094BBC
:101E90001B6803EA0102074B14331B680B4202D094
:101EA0000AB1012000E000207047024914310860A7
:101EB0007047000000040140FFFF0F0010B504460A
:101EC0002CB90120FE4909680882002010BDFD4997
:101ED000096808688047FA4800680A30F6E710B5D4
:101EE000F7480068C078F8494978884213DCF4481C
:101EF0000068807878B9F2480068808858B9F0485E
:101F00000068C078EE4909688872EE490968486837
:101F10008047002010BD0220FCE710B504462CB914
:101F20000120E74909680882002010BDE5490968D9
:101F300088688047E24800680C30F6E710B5E04B4F
:101F40001B68D978DE4B1B685879E04B1B689A698F
:101F500090470446DA480068807AE8B13CB9D8482E
:101F60000068007918B9D6480068807808B1022066
:101F700010BD8CB9D3490968C8688047D04800684B
:101F80004079CF490968C872CD480068C078CC490B
:101F9000096808730020EBE70220E9E710B5044662
:101FA0002CB90220C64909680882002010BD002013
:101FB000C7490880C2480068007810F07F0F1CD124
:101FC000BF490968487A10F0200F05D0C049097848
:101FD00041F00201BE4A117010F0400F06D0BC491A
:101FE000097841F00101BA4A117005E0B849097851
:101FF00001F0FE01B64A117036E0B1480068007881
:1020000000F07F00012801D1B148CFE7AC4800685B
:10201000007800F07F00022824D1A94A1268517983
:1020200001F00F0011F0800F0DD0AA4A52F82020C5
:1020300002F03002102A14D1A54A127842F00102AF
:10204000A34B1A700DE0A34A52F8202002F440522C
:10205000B2F5805F05D19E4A127842F001029C4B96
:102060001A7001E00020A1E79649096808698047D5
:1020700097489BE72DE9F04791480068007800F009
:102080007F08B8F1000F0AD18D480068407A00F04F
:10209000DF008B49096848720020BDE8F087B8F17D
:1020A000020F76D186480068408818B984480068D5
:1020B000007908B10220F0E7DFF80C928048006850
:1020C000477927F080052C467D480068407910F05C
:1020D000800F05D07F4850F8240000F0300604E05F
:1020E0007C4850F8240000F4405699F80000A842BB
:1020F00004D91EB172480068807A08B90220CCE782
:1021000017F0800F0ED0734850F8240000F0300014
:10211000102837D1204600F01BFF2046302100F068
:10212000E8FD2FE06B4850F8240000F44050B0F573
:10213000805F27D1A4B9684A92F82C10204600F09D
:102140008BFF644951F824104BF68F7201EA0200AC
:1021500080F4805080F400505E4941F8240011E082
:10216000204600F0E0FE5B4951F824104BF68F72D8
:1021700001EA020080F4805080F40050554941F893
:10218000240000BF4F49096848698047002084E760
:10219000FFE700BF022080E72DE9F04148480068D2
:1021A000467926F080073C4645480068407910F0A3
:1021B000800F05D0474850F8240000F0300504E0B7
:1021C000444850F8240000F440553F480078A042AD
:1021D00008D93B480068408820B91DB138480068DC
:1021E000807A10B90220BDE8F08116F0800F0CD083
:1021F000384951F8241048F6BF7201EA020080F015
:102200001000344941F824000CE0324951F8241000
:102210004BF68F7201EA020080F480502D4941F89C
:10222000240000BF27490968886980470020DAE751
:1022300010B523480068407A40F020002049096822
:10224000487220490968C8698047002010BD10B550
:1022500002461B480068438A32B98888C01A184C65
:1022600024682082002010BD08681844FBE72DE98F
:10227000F0411348006800F110042688A068C0B13E
:10228000BEB1A588B54200D935462846A168884721
:1022900007462088401B20806088284460800020FA
:1022A00000F0A7FE80462A464146384600F0C2FCB0
:1022B00000BF2088D8B14FF44050084908800FE093
:1022C00024010020300100205400002028010020BB
:1022D0001C010020005C0040580000203401002058
:1022E0000021084600F092FE3020FE490880208838
:1022F000A188884204DB0320FB490968087218E0C2
:102300002088002804DD0520F7490968087210E0DC
:10231000208870B90620F449096808720021F34842
:10232000006880B2801CF24A42F810103020ED495B
:102330000880BDE8F0812DE9F047EB48006800F126
:1023400010052E88E8480068077A36B9042F04D1B2
:1023500007271020E349088027E0AC88A64201D86F
:10236000042000E002200746B44200D9344620464B
:10237000A96888478046002000F02FFE814622464B
:102380004946404600F03CFC2146002000F03EFE5D
:102390002888001B28806888204468803020D14924
:1023A00008800002D349088000BFCF480068077248
:1023B000BDE8F08770B50226CB4800684478CA486B
:1023C0000068007810F07F0F4AD1092C03D1FFF785
:1023D00086FD064665E0052C14D1C3480068C07828
:1023E0007F280BDCC0480068807838B9BE48006898
:1023F000808818B9BC480068807A08B108256BE06D
:1024000000264EE0032C14D1B7480068C07801289C
:102410000DD1B5480068808848B9B3480068407A53
:1024200010F0200F03D0FFF703FF064639E0022625
:1024300037E0012C35D1AC480068C07801280DD1B7
:10244000A9480068808848B9A7480068407A10F019
:10245000200F03D0FFF70EFE064622E0022620E002
:10246000A1480068007800F07F00012805D10B2CFE
:1024700017D1FFF763FD064613E09B48006800781C
:1024800000F07F0002280BD1012C03D1FFF7F2FDF1
:10249000064606E0032C04D1FFF77EFE064600E068
:1024A00002264EB12046944A126851698847064672
:1024B000032E01D109250FE00EB108250CE00625F9
:1024C00000218A48006880B2801C894A42F81010B6
:1024D00030208449088000BF83480068057270BDC1
:1024E0002DE9F05F8048006845780027BB46062D3F
:1024F0001AD17D480068007810F07F0F13D17A4917
:1025000009688878012803D17B490968CF690AE006
:10251000022803D1784909680F6A04E0032802D130
:10252000754909684F6A97E0002D65D16E480068CB
:102530004088002860D16C480068C08802285BD1C0
:10254000694800680079002856D16748006800781B
:1025500010F07F0F06D164480068808810B9AFF290
:10256000C35779E060480068007800F07F000128D8
:1025700011D15D49096848795F4909688A69002174
:102580009047002868D158480068807A002863D0B6
:10259000AFF2F75760E054480068007800F07F0021
:1025A000022859D150480068407900F00F064E4883
:1025B0000068407900F0700A4B480068407910F0DC
:1025C000800F06D04948503850F8260000F03008F7
:1025D00005E04648503850F8260000F44058474877
:1025E0000078B04238D9BAF1000F35D1B8F1000FF8
:1025F00032D0AFF257672FE0082D08D13A48006873
:10260000007810F07F0F27D1AFF24F7724E00A2D2A
:1026100022D135480068007800F07F0001281BD1E6
:1026200031480068807AB8B12F480068408898B96E
:102630002D480068007978B92B480068C0880128C7
:102640000AD12949096848792B4909688A69002112
:10265000904708B9AFF23D7757B123480068A0F81A
:1026600012B02148006887610020B84700240FE0BD
:102670001D4A12685078204A12681169884704463A
:10268000032C05D10920184909680872BDE8F09F9C
:1026900015480068008AA0F57F41FF3904D1092060
:1026A000114909680872F1E7022C03D00E4800684E
:1026B000008A20B908200C4909680872E6E70A4830
:1026C0000068007810F0800F26D007480068B0F846
:1026D000069005480068008A484513D902480068FA
:1026E0000EE000003601002024010020505C004074
:1026F0000060004034010020280100205400002028
:10270000A0F810907848006890F82C10774800687E
:102710008182FFF710FE06E0032074490968087201
:1027200000037349088000BFB0E710B5714890F806
:102730002C10002000F090FC6C480068007A0828FB
:1027400005D140026A49088010206B49088067481B
:102750000068007A092801D1012010BD0020FCE7A3
:1027600008B56648006880B2001D654931F8100060
:1027700080B201EB400000905C480068007A0928B4
:102780002FD0009800785949096808700098401CBB
:102790000090009800785549096848700098401CDE
:1027A00000900098801C0090009931F8020B009175
:1027B00000F0E9FD4D49096848800098801C0090B0
:1027C000009931F8020B009100F0DDFD47490968DE
:1027D00088800098801C0090009800884349096810
:1027E000C880012041490968087240480068C088D3
:1027F00010B9FFF7DFFD01E0FFF772FEFFF795FF6D
:1028000008BD30B501463F4B1A7800200FE0C3B237
:102810003A4C503C54F8233048F68F742340C4B2ED
:102820002343C4B2354D503D45F82430401C9042FE
:10283000EDD341F08003314C241F236030BD10B52F
:102840002A480068047A022C01D0042C05D1FFF735
:1028500072FD26480068047A1CE0062C19D1234832
:102860000068407805280ED120480068007810F0F4
:102870007F0F08D11D490968C878FFF7C2FF2249B8
:102880000968086A804718490968886880470824E9
:1028900000E00824154800680472FFF746FF10BDE9
:1028A00010B512480068047A032C01D0052C05D11C
:1028B000FFF7DDFC0D480068047A0EE0072C05D117
:1028C00009490968C8688047082406E0022C01D03D
:1028D000042C01D1082400E0082404480068047294
:1028E000FFF723FF10BD70472801002024010020BE
:1028F000340100205800002036010020505C0040C8
:1029000000600040540000203001002010B508484D
:1029100008490860022009680872074807490860EA
:10292000074808490860054909680868804710BDDC
:102930005801002024010020580000202801002018
:10294000880000203001002010B5F2E047F6FF704B
:10295000A4490860A448008800F00F00A34908704B
:102960000846007800287DD19E484438006800F46D
:1029700040509F4908809B484438006800F0300070
:102980009C4908809749443909684BF68F7201EADF
:10299000020080F40050934944390860096848F601
:1029A000BF7201EA020080F020008E4944390860BD
:1029B0008D48008810F0100F1ED10846006848F6B8
:1029C0000F710840874944390860FFF738FF854890
:1029D0004438006884B214F4084F40D08148443829
:1029E0000068C0F30E0048F68F7108407D494439F5
:1029F0000860FFF7B5FE32E07A484438006884B2D8
:102A000014F0800F0AD077484438006848F60F71F8
:102A10000840744944390860FFF711FF14F4006F4F
:102A20000DD0704844380068C0F30E0048F68F712E
:102A300008406C4944390860FFF792FE0FE014F437
:102A4000004F0CD0674844380068C0F30E0048F6C9
:102A50008F710840634944390860FFF721FF6149DD
:102A6000443900E02CE009684BF68F7201EA02005D
:102A70005F49098811F4805F01D080F480505C497F
:102A8000098811F4005F01D080F4005055494439A1
:102A90000860096848F6BF7201EA020055490978E2
:102AA00011F0100F01D080F010005249097811F098
:102AB000200F01D080F020004A494439086038E0F6
:102AC0004A4800784749443951F8200084B214F448
:102AD000004F15D04548007851F82000C0F30E0093
:102AE00048F68F710840414909783E4A443A42F815
:102AF00021003E490978491E3F4A52F8210080478B
:102B000014F0800F15D0394800783649443951F80F
:102B1000200048F60F71084034490978314A443A98
:102B200042F8210031490978491E344A52F82100FF
:102B300080472C48006880B22B49088010F4004F71
:102B40007FF404AF10BD10B542E047F6FF70254991
:102B500008602548008800F00F00244908700846E6
:102B600000782049443951F8200084B214F4004F11
:102B700015D01E48007851F82000C0F30E0048F62A
:102B80008F71084019490978164A443A42F82100E1
:102B900016490978491E184A52F82100804714F056
:102BA000800F15D0114800780E49443951F82000A3
:102BB00048F60F7108400D4909780A4A443A42F82C
:102BC00021000A490978491E0C4A52F82100804721
:102BD0000448006880B20449088010F4004FB4D162
:102BE00010BD0000445C0040500000202001002087
:102BF000340100203601002034000020180000209D
:102C0000F0B5144604F1010C4FEA6C07DFF848C038
:102C10000CEB41033D460AE00678401C90F800C0EA
:102C200046EA0C2223F8022B9B1C401C6D1E002D33
:102C3000F2D1F0BDF0B5561C7510074E06EB4104FD
:102C40002B4605E034F8047B20F8017B401C5B1E1A
:102C5000002BF7D1F0BD000000600040F84908608B
:102C60007047F748006880B27047F549091D086051
:102C70007047F348001D006880B27047F048083084
:102C8000006880B27047EE490C3108607047EC482C
:102C90000C30006880B270474FF6F8710140E84A86
:102CA000103211607047E6481030006880B27047FB
:102CB000E34A403A42F8201070470146E048403865
:102CC00050F8210080B27047DD4A403A52F8202087
:102CD00048F68F131A400A43D94B403B43F8202053
:102CE00070470146D648403850F8210000F4C060D3
:102CF000704710B5D24B403B53F8203048F6BF74B4
:102D000003EA040211F0100F01D082F0100211F05A
:102D1000200F01D082F02002C94B403B43F8202015
:102D200010BD10B5C64B403B53F820304BF68F74A6
:102D300003EA040211F4805F01D082F4805211F49E
:102D4000005F01D082F40052BD4B403B43F820208D
:102D500010BD10B502460B461046FFF7AEFF044605
:102D6000012B06D124F48050B549403941F82200A6
:102D700007E0022B05D124F01000B149403941F899
:102D8000220010BD0146AE48403850F8210000F046
:102D9000300070470146AA48403850F8210000F43E
:102DA00040507047A64A403A52F8202048F6BF7378
:102DB00002EA030181F0100181F02001A04A403AAB
:102DC00042F8201070479E4A403A52F820204BF6B5
:102DD0008F7302EA030181F4805181F40051984A13
:102DE000403A42F8201070479549403951F8201078
:102DF00041F4807148F68F721140914A403A42F88E
:102E0000201070478E49403951F8201048F68F62E3
:102E100011408B4A403A42F82010704788494039A7
:102E200051F8201048F68F621140854A403A42F826
:102E3000201070478249403951F8201041F48071C8
:102E400048F68F7211407E4A403A42F8201070478F
:102E50007B49403951F8201041F4807148F68F7257
:102E60001140774A403A42F820107047744940397F
:102E700051F8201048F68F621140714A403A42F8EA
:102E80002010704701466E48403850F8210000F08D
:102E90003000102801D1012070470020FCE70146D6
:102EA0006748403850F8210000F44050B0F5805F8A
:102EB00001D1012070470020FCE76149403951F8F9
:102EC0002010C1F30E0148F68F7211405C4A403A5F
:102ED00042F8201070475A49403951F8201048F6FE
:102EE0000F721140564A403A42F820107047544938
:102EF000403951F8201048F68F72114041F480415A
:102F00004F4A403A42F8201070474D49403951F835
:102F1000201048F68F72114041F04001484A403A73
:102F200042F8201070474649403951F8201011F4FA
:102F3000804F0CD04249403951F8201048F68F722A
:102F4000114041F480413E4A403A42F82010704717
:102F50003B49403951F8201011F0400F0CD038494E
:102F6000403951F8201048F68F72114041F040016D
:102F7000334A403A42F820107047314A403A52F8FA
:102F8000202048F68F731A400A432D4B403B43F8EC
:102F90002020704701462A48403850F8210000F0B0
:102FA0000F00704710B54A105300254A10321268BE
:102FB00092B202EBC002234C44F8123010BD10B59F
:102FC0004A1053001E4A1032126892B202EBC0023D
:102FD000121D1C4C44F8123010BD01461848103028
:102FE000006880B200EBC100164A32F8100080B2CF
:102FF0007047014612481030006880B200EBC100F3
:10300000001D104A32F8100080B270470C4A10328E
:10301000126892B202EBC002921C0A4B43F81210E3
:10302000704702463E290FDD481111F01F0F01D1F4
:10303000431E98B24FF4004343EA802313600AE032
:10304000405C004000600040481011F0010F00D0CB
:10305000401C83021360704710B50246CD480068DB
:1030600080B200EBC200801DCB4C04EB40033E2934
:103070000BDD481111F01F0F01D1441EA0B24FF417
:10308000004444EA80241C6006E0481011F0010F5F
:1030900000D0401C84021C6010BD0146BD48006881
:1030A00080B200EBC100801CBB4A32F81000C0F3B4
:1030B000090070470146B748006880B200EBC100C4
:1030C000801DB54A32F81000C0F30900704730B5D2
:1030D0004B105C00AF4B1B689BB203EBC003AE4DC3
:1030E00045F8134053105C00AA4B1B689BB203EBDE
:1030F000C0031B1D45F8134030BD10B54A105300E6
:10310000A44A126892B202EBC002A34C44F81230F7
:1031100010BD10B54A1053009E4A126892B202EBDD
:10312000C002121D9C4C44F8123010BD0146994853
:10313000006880B200EBC100974A32F8100080B2FC
:10314000704701469348006880B200EBC100001D43
:10315000914A32F8100080B2704730B50B46012B0F
:103160001ED18C49096889B201EBC001891C8A4DC6
:1031700005EB41043E2A0BDD511112F01F0F01D166
:103180004D1EA9B24FF4004545EA8125256006E0B1
:10319000511012F0010F00D0491C8D0225600AE089
:1031A000022B08D17B49096889B201EBC001891C57
:1031B000794C44F81120012B1ED17649096889B257
:1031C00001EBC001891D744D05EB41043E2A0BDD66
:1031D000511112F01F0F01D14D1EA9B24FF400453D
:1031E00045EA8125256006E0511012F0010F00D05C
:1031F000491C8D0225600AE0022B08D16549096847
:1032000089B201EBC001891D634C44F8112030BD27
:1032100030B5034601291ED15E48006880B200EB3C
:10322000C300801C5C4D05EB40043E2A0BDD5011B1
:1032300012F01F0F01D1451EA8B24FF4004545EA18
:103240008025256006E0501012F0010F00D0401CD0
:10325000850225600AE0022908D14E48006880B244
:1032600000EBC300801C4C4C44F8102030BD30B53E
:10327000034601291ED14748006880B200EBC30015
:10328000801D454D05EB40043E2A0BDD501112F028
:103290001F0F01D1451EA8B24FF4004545EA802515
:1032A000256006E0501012F0010F00D0401C85028E
:1032B00025600AE0022908D13648006880B200EB98
:1032C000C300801D344C44F8102030BD0146314805
:1032D000006880B200EBC100801C2F4A32F8100059
:1032E000C0F30900704701462A48006880B200EB2D
:1032F000C100801D284A32F81000C0F30900704751
:1033000001462448006880B200EBC100801D224ABB
:1033100032F8100010F47C4F01D0012070471D4896
:10332000006880B200EBC100801C1B4A32F810001C
:103330008005800D01D00220F0E70020EEE7012992
:103340000DD1144A503A52F8202048F68F731A4093
:1033500042F040020F4B503B43F820200EE0022980
:103360000CD10C4A503A52F8202048F68F731A407C
:1033700042F48042074B503B43F8202070470246FE
:1033800041EA022070470146CAB20B1243EA02200A
:1033900070470000505C004000600040704770477C
:1033A000704770477047754600F028F8AE46050034
:1033B0006946534620F00700854618B020B5FDF752
:1033C00079FCBDE820404FF000064FF000074FF0B9
:1033D00000084FF0000B21F00701AC46ACE8C00933
:1033E000ACE8C009ACE8C009ACE8C0098D4670473C
:1033F0000446AFF300802046FCF7DFFE004870472C
:1034000074010020120100020000004083041057E4
:1034100000020102030109022200010100C0320979
:103420000400000103010200092100010001224AF9
:10343000000705810304002005010902A10109011B
:10344000A10005091901290315002501950375013E
:10345000810295017505810105010930093109389D
:103460001581257F750895038106C0093C05FF0974
:10347000011500250175019502B12275069501B16E
:1034800001C0040309042603530054004D006900E1
:10349000630072006F0065006C00650063007400DB
:1034A00072006F006E006900630073001E0353001A
:1034B00054004D003300320020004A006F007900B4
:1034C00073007400690063006B001A034A006F0008
:1034D000790020002000200031002E003000300054
:1034E00030003000043500080000002038010000E2
:1034F000280100088435000838010020A0060000DB
:1035000084010008413E3443101001059201138DDF
:103510000C0C3008E72804411A0247132D091B0838
:1035200075041AF7041AF904132B0A1B08AB041AC2
:10353000FF041ACB041AD9041AE7044132400922C5
:103540005C1304343308121A160832221A3808326F
:103550004A1A280832091A820832041A86083226C2
:103560001AAC08321E1ACA08821A29E32BA24A276B
:10357000490F3E02030406073F390C69103C020460
:04358000069C01188C
:04000005080000ED02
:00000001FF
